:10000000ECC300000BC4000009C4000007C40000DA
:1000100005C4000003C4000001C40000FFC30000C9
:10002000FDC30000FBC30000F9C300000C94512580
:10003000F5C30000F3C300000C9486250C94B3258F
:100040000C94E0250C940D260C943A260C9467260B
:100050000C9494260C94C1260C94EE260C941B2729
:10006000DDC30000DBC30000D9C30000D7C300001C
:10007000D5C30000D3C30000D1C30000CFC300002C
:10008000CDC30000CBC30000C9C30000C7C300003C
:10009000C5C30000C3C30000C1C300000C94B32259
:1000A0000C94E5220C9417230C944923B7C3000049
:1000B000B5C30000B3C30000B1C300000C940A290B
:1000C0000C9437290C9464290C9491290C94BE2922
:1000D0000C94EB290C94182A0C94452A0C94722A3F
:1000E0000C949F2A9BC3000099C3000097C3000093
:1000F00095C3000093C3000091C300008FC30000AC
:100100008DC300008BC3000089C3000087C30000BB
:1001100085C3000083C3000081C300000C94EB2161
:100120000C941D220C944F220C94812277C3000062
:1001300075C300000C9448270C9475270C94A227D3
:100140000C94CF270C94FC270C9429280C94562847
:100150000C9483280C94B0280C94DD285FC3000015
:100160005DC300005BC3000059C3000057C300001B
:1001700055C3000053C3000051C300004FC300002B
:100180004DC300004BC3000049C3000047C300003B
:1001900045C3000043C3000041C300003FC300004B
:1001A0003DC300003BC3000039C3000037C300005B
:1001B0000C94CC2A0C94F92A0C94262B0C94532BD7
:1001C0000C94802B0C94AD2B29C3000027C3000096
:1001D00025C3000023C3000021C300001FC300008B
:1001E0001DC300001BC3000019C3000017C300009B
:1001F00015C300000C9452340C940635662F692FF9
:100200006C2F6F2F722F752F782FFF7E3C18FF7E7B
:100210003C18183C7EFF0000000000000020202059
:1002200020200020505050000000005050F850F89E
:1002300050502078A07028F020C0C8102040981896
:100240006090A040A890686020400000000010204E
:10025000404040201040201010102040005020F856
:10026000205000002020F820200000000000602026
:1002700040000000F8000000000000000060600086
:10028000081020408000708898A8C88870206020DE
:1002900020202070708808102040F8F810201008E6
:1002A000887010305090F81010F880F008088870AE
:1002B000304080F0888870F80810204040407088F6
:1002C0008870888870708888780810600060600086
:1002D0006060000060600060204008102040201036
:1002E000080000F800F800008040201020408070D6
:1002F00088081020002070880868A8A87070888876
:1003000088F88888F08888F08888F07088808080F5
:100310008870E09088888890E0F88080F08080F88D
:10032000F88080E0808080708880809888708888DD
:1003300088F88888887020202020207038101010BD
:100340001090608890A0C0A090888080808080807D
:10035000F888D8A8888888888888C8A898888870E5
:10036000888888888870F08888F080808070888885
:1003700088A89068F08888F0A090887880807008BD
:1003800008F0F8202020202020888888888888701D
:1003900088888888885020888888A8A8D8888888ED
:1003A000502050888888885020202020F80810206D
:1003B0004080F8382020202020380080402010087D
:1003C00000E02020202020E02050880000000000D5
:1003D0000000000000F84020100000000000007045
:1003E000087888788080B0C88888F00000708080A5
:1003F00088700808689888887800007088F880708D
:10040000304840E0404040000078887808308080E4
:10041000B0C888888820006020202070100030102C
:1004200010906040404850605048602020202020BC
:10043000700000D0A8A888880000B0C8888888000C
:100440000070888888700000F088F0808000006864
:10045000987808080000B0C8808080000070807024
:1004600008F04040E04040483000008888889868A4
:100470000000888888502000008888A8A8500000C4
:100480008850205088000088887808700000F81094
:100490002040F81020204020201020202020202064
:1004A0002040202010202040088942183DBC1842DE
:1004B00091103C7EFF8180100A021A021A020A1073
:1004C0006050A09884828C844C300D0A57656C6310
:1004D0006F6D6520746F2074686520584D454741E5
:1004E0002D413342552058706C61696E656420441B
:1004F000656D6F2043444320696E74657266616365
:1005000065210D0A0D0A4B65792062696E64696E7A
:10051000677320666F72204C4344206D656E7520B2
:10052000636F6E74726F6C3A0D0A2020456E7465AD
:10053000722020202020203A20456E7465720D0A1A
:1005400020204261636B737061636520203A204212
:1005500061636B0D0A20204172726F772055702005
:1005600020203A2055700D0A20204172726F7720AA
:10057000446F776E203A20446F776E0D0A00446115
:10058000746520696E76616C6964004D696E75747E
:100590006500486F757200446179004D6F6E746834
:1005A0000059656172005365742054696D657A6FF6
:1005B0006E65005365742054696D65005365742041
:1005C000446174650053686F7720446174652654F4
:1005D000696D6500446174652654696D6500546FEA
:1005E00067676C65204261636B6C6967687400447F
:1005F00061746520262054696D650050726F6475C2
:100600006374696F6E2044617465004C6967687437
:1006100073656E736F720054656D70657261747589
:100620007265004D61696E204D656E750054656D93
:100630007065726174757265002B3435206D696E5A
:10064000002B3330206D696E002B3135206D696EC3
:10065000002030206D696E0054696D657A6F6E659B
:10066000206D696E757465733A002B31323A2046FD
:10067000696A69002B31313A20536F6C6F6D6F6E70
:100680002049736C616E64002B31303A2041455330
:100690005400202B393A20546F6B796F00202B388F
:1006A0003A20486F6E67204B6F6E6700202B373AF9
:1006B00020546861696C616E6400202B363A2042D8
:1006C000616E676C616465736800202B353A205059
:1006D000616B697374616E00202B343A204D6F7327
:1006E000636F7700202B333A204E6169726F626925
:1006F00000202B323A20497374616E62756C0020C1
:100700002B313A204F736C6F2C204265726C696EEE
:10071000005554433A20554B2028474D542900207A
:100720002D313A20507261696100202D323A2053F8
:100730006F7574682047656F7267696100202D339B
:100740003A20477265656E6C616E6400202D343A04
:100750002045435400202D353A204561737465725D
:100760006E00202D363A2043656E7472616C002055
:100770002D373A204D6F756E7461696E00202D38EB
:100780003A205061636966696300202D393A20413F
:100790006C61736B61002D31303A2048617761697B
:1007A00069002D31313A204B696E676D616E2052C0
:1007B000656566002D31323A2042616B65722049D1
:1007C000736C616E640054696D657A6F6E65206844
:1007D0006F75727320555443000011241FBECFEF74
:1007E000CDBFDFE5DEBF00E00CBF12E2A0E0B0E26B
:1007F000E4E5F7E800E00BBF02C007900D92AA36CF
:10080000B107D9F72BE2AAE6B2E201C01D92AE39D8
:10081000B207E1F70E942E3B0C94A843F1CB8093E2
:10082000A2066093A2068093A5066093A606609335
:10083000A10608953F936093A2068093A10680933A
:10084000A2066093A1063F918091A8068423089593
:100850008093A6068093A1060895A1E0B0E0E3E3AB
:10086000F4E00C94AA40E82F0FB700781982809129
:100870006A22813019F081E080936A22CE2EDD2435
:10088000F601E455FD4DB080F601E055FD4DA08028
:10089000F894BB2009F4AAC08B2DDADF8B2D6A2DCA
:1008A000BEDF1B2DEE24FF2460E0812C30E2932E6E
:1008B000F5FE07C09091AD228091AC22982B19F5DE
:1008C00035C08FB7802B8FBF0000F8948B2D6A2D19
:1008D000412FB0DF682F0894E11CF11C80910020AB
:1008E0008F5F80930020823030F0823021F083309F
:1008F00011F0109200206623D9F22091AD22809150
:10090000AC22282B15C0412F80E040FF09C0E82F02
:10091000F0E0EE0FFF1FEB58FD4D8082918201C089
:1009200090FD8F5F96954695992379F710E020E02A
:100930008FB7802B8FBF10926B22222309F43FC008
:10094000112309F43CC03091B1228091B022382BA0
:10095000562F90E080E070E040E023C050FD17C0CB
:1009600019C030FF13C0981781F4E42FF0E0EE0FA8
:10097000FF1FEB58FD4DE082F182852F8E7F19F429
:10098000892F71E008C0892F06C08F5F3695332309
:1009900041F701C020FD9F5F20FD4F5F56952695D2
:1009A00011F05523D9F640936B22609516237130D0
:1009B00021F4112311F4EE24FF2460E013C0809190
:1009C000AD229091AC22892B898390E006C0898169
:1009D00080FD9F5F89818695898389818823B9F706
:1009E00090936B22F894112309F062CF8CEA92E283
:1009F000C80ED91EF60180812BDF8FB7082B0FBFE1
:100A00002196ECE00C94C340FC0180E290E08083EE
:100A100091831282138280E394E084839583089506
:100A20009091A622A92FB0E0FD01EE0FFF1FEA0F63
:100A3000FB1FEE0FFF1FE257FD4D43836770858359
:100A40002370660F660F660F262B24839F5F90939B
:100A5000A62208951F93CF93DF93282FC82FD0E0AD
:100A6000FE01EE0FFF1FEC0FFD1FEE0FFF1FE25701
:100A7000FD4D3581838190E000906E2202C09595F6
:100A800087950A94E2F7182F843008F414E08091D7
:100A9000A622281718F020E030E02DC0832F1DD1AA
:100AA0009C01412F50E016951695812F90E0841BF4
:100AB000950B8217930764F4FE01EE0FFF1FEC0FF6
:100AC000FD1FEE0FFF1FE257FD4D84818B7F848356
:100AD00088279927841B950B8217930764F0FE01E2
:100AE000EE0FFF1FEC0FFD1FEE0FFF1FE257FD4D36
:100AF000848184608483C901DF91CF911F9108951F
:100B0000FF920F931F93CF93DF9310928622109240
:100B1000872220918A2230918B2280938A2290937F
:100B20008B2240918C2250918D22421B530B480FF7
:100B3000591FFF2403C0F394485C5040483C5105C2
:100B4000D0F740938C2250938D228091A722882346
:100B500041F08F1518F41092A72203C08F198093CB
:100B6000A722AAD3E0918822F0918922309709F038
:100B7000199510E000E005C0812F6F2DC3D0082B20
:100B80001F5F6091A6221617B8F3002349F08091E9
:100B9000862290918722916080938622909387226B
:100BA00010928522AEE8B2E230E041E050E017C09A
:100BB0008C91887191F0E32FE695E695E695F0E04B
:100BC000EB58FD4D832F8770EA0102C0CC0FDD1F6B
:100BD0008A95E2F720892C2B208B3F5F16963617DB
:100BE00038F38091862290918722CDB7DEB7E5E079
:100BF0000C94CA401092A62284E080936F2294E164
:100C00009093722285E080937322109271229093C8
:100C1000702281E080936E2283E0809374223BD324
:100C2000109288221092892208951F9310E003C029
:100C3000812F27D01F5F8091A6221817C8F31F911C
:100C40000895EF92FF921F93CF93DF93EC017B0106
:100C500010E003C0812F15D01F5F8091A6221817C6
:100C6000C8F310928A2210928B22C0936C22D093E8
:100C70006D22C7010BD3DF91CF911F91FF90EF90B1
:100C8000089590E0EEE8F2E29C01220F331F280F56
:100C9000391FD901AA0FBB1FAE0FBF1F15964C916C
:100CA0001597809186229091872282608093862278
:100CB000909387222F5F3F4F220F331FE20FF31FC6
:100CC0001082E8EAF2E2E40FF11D80E8808381E01F
:100CD0008C938FE011968C93089590E0FC013496EC
:100CE000A5E7B2E2EE0FFF1FEA0FFB1F880F991F67
:100CF000A80FB91F208131818D919C91281B390B40
:100D0000C9010895A0E0B0E0E8E8F6E00C94A8403E
:100D1000782EF62E9FDE5C01072D10E0F801EE0F15
:100D2000FF1FE00FF11FEE0FFF1FE257FD4D548133
:100D30004381242F30E0852F837090E0019602C01C
:100D4000359527958A95E2F7822F223008F482E0C4
:100D5000242F30E0B901681B7109F801EE0FFF1F65
:100D6000E00FF11FEF01CC0FDD1FC257DD4D888171
:100D7000843009F4F7C0853030F4813071F082306E
:100D800009F07DC26EC0803109F4A1C1803209F43E
:100D900042C2883009F073C2EEC140918622509160
:100DA0008722CA01926080938622909387228D8148
:100DB0006981A82FB0E06A3060F0AA0FBB1FFD0167
:100DC000EB58FD4D80819181A358BD4D8D939C932F
:100DD00018C0AA0FBB1FFD01E358FD4D20813181D2
:100DE000AB58BD4D8D919C918217930718F42150FB
:100DF000304005C02817390750F42F5F3F4F20833C
:100E00003183486052604093862250938722862F18
:100E10008150F801EE0FFF1FE00FF11FEF01CC0F23
:100E2000DD1FC257DD4D89838823B1F4AD8182E097
:100E30008883809186229091872282608093862287
:100E400090938722EE0FFF1FE057FD4D1082B0E018
:100E5000A855BD4D80E88C93809170228093A72285
:100E60000CC252FF04C080E288831982F7C1C50119
:100E7000B7FE02C080E090E08217930780F0F8018F
:100E8000EE0FFF1FE00FF11FEE0FFF1FDF01A25754
:100E9000BD4D84E08C93E057FD4D1082E5C1FF20ED
:100EA00009F4EDC18091A722882309F0E8C1F80177
:100EB000EE0FFF1FE00FF11FEE0FFF1FE257FD4D7A
:100EC000858190E0EC01CC0FDD1FC358DD4D2881FA
:100ED0003981FC01EE0FFF1FEB58FD4D0190F081B1
:100EE000E02D2E173F0788F4FC01E855FD4D908159
:100EF0009F0D9083809173228058981708F4BFC18A
:100F000080E880832F5F3F4F14C0DC01A855BD4DA2
:100F1000E217F307D0F48C918F198C9340E89091ED
:100F20007222542F591B581708F4A9C14C93215011
:100F3000304028833983809186229091872288606F
:100F400080938622909387229AC12C91213810F0A9
:100F500021502C93FC01E855FD4D808187FD8FC108
:100F60008F5F57C1C501B7FE02C080E090E0F80175
:100F7000EE0FFF1F8217930708F48FC08091702235
:100F80008093A7229F01200F311F220F331FD90109
:100F9000A057BD4D8C918F5F8C93F901E257FD4DA9
:100FA000848190E08873907023E0969587952A95C8
:100FB000E1F7682E882309F43EC0DD24CC247F01AC
:100FC00083E090E0E80EF91E4D012FC0D71461F1C7
:100FD0008D2D90E0EC01CC0FDD1FC80FD91FCC0F79
:100FE000DD1FC257DD4D8C8190E08873907073E0F7
:100FF000969587957A95E1F76816B1F48D2D2ADDDF
:101000002B81821B9109F7012081A501421B510907
:10101000481759072CF08881803111F0883021F46D
:10102000F4011082CC24C394D3948091A622D816C4
:1010300068F2CC2079F480916F22882359F0809156
:1010400086229091872298608093862290938722AF
:1010500041E001C040E09801220F331F200F311FF3
:10106000F901EE0FFF1FE057FD4D908180916F2237
:10107000981708F405C18091862290918722836099
:101080008093862290938722F901EE0FFF1FE2578B
:10109000FD4D80E180831182F3C0E00FF11FEE0F60
:1010A000FF1FDF01A257BD4D15962C91159782E0C9
:1010B0008C938091862290918722826080938622F1
:1010C00090938722E057FD4D1082E22F9EC0C5010C
:1010D000B7FE02C080E090E0F801EE0FFF1F4091E4
:1010E0008622509187228617970770F4E00FF11F30
:1010F000EE0FFF1FE257FD4D88E080835460409360
:1011000086225093872231C04160409386225093BB
:101110008722E00FF11FEE0FFF1FE057FD4D90817A
:1011200080916F22981710F49F5F908390917122A5
:10113000992371F0F801EE0FFF1FE00FF11FEE0F82
:10114000FF1FE257FD4D8181891720F48F0D8183A8
:1011500040E00CC0872D95DD8091862290918722FA
:101160009260809386229093872241E08091702242
:101170008093A72285C0809170228093A722DF01EF
:10118000AA0FBB1FA057BD4D8C91882389F1C501C3
:10119000B7FE02C080E090E0409186225091872205
:1011A0006817790790F4F801EE0FFF1FE00FF11FA9
:1011B000EE0FFF1FE257FD4D80E1808341604093B9
:1011C00086225093872240E006C0546040938622D6
:1011D0005093872241E0F801EE0FFF1FE00FF11F4F
:1011E000EE0FFF1FE057FD4D80818150808348C086
:1011F000ED8182E0888380918622909187228260AF
:1012000080938622909387221C92F0E0E855FD4D52
:1012100080E8808334C099819F5F99838C8182FDAF
:1012200017C0AD8182E088838091862290918722C9
:1012300082608093862290938722EE0FFF1FE057F3
:10124000FD4D1082B0E0A855BD4D80E88C9317C0CD
:1012500080917422981740F0872D13DD80918622AB
:1012600090918722906105C080918622909187227B
:101270009460809386229093872241E001C040E0F1
:10128000842FCDB7DEB7EEE00C94C140FC0100978F
:1012900009F0199508951092AC221092AD22109287
:1012A000B0221092B1221092AE221092AF22109270
:1012B000B2221092B32208958091AE229091AC2276
:1012C000892B41F0E0916C22F0916D22309711F062
:1012D00080E019958091AF229091AD22892B41F049
:1012E000E0916C22F0916D22309711F081E0199518
:1012F0000895613069F58091B5228F5F8093B522A2
:10130000813039F44093B6225093B7221092BA221A
:101310000CC08091B6229091B722480F591F569564
:1013200047954093B6225093B7228091B5228430DE
:1013300031F41092B52281E08093BA2208959FB7CC
:10134000F894E0E0F2E08081846080839FBF08959C
:10135000623061F58091B4228F5F8093B422813036
:1013600039F44093B8225093B9221092BB220CC09A
:101370008091B8229091B922480F591F56954795F0
:101380004093B8225093B9228091B422843031F432
:101390001092B42281E08093BB2208959FB7F89405
:1013A000E0E0F2E08081886080839FBF08959FB76E
:1013B000F8948091BB22882321F01092BB229FBF1A
:1013C00008959FBF08959FB7F8948091BA2288230B
:1013D00021F01092BA229FBF08959FBF08951F93D6
:1013E000CF93DF93CDB7DEB72B97CDBFDEBFBE0166
:1013F0006F5F7F4F80E092E00E94CB23AE01485F99
:101400005F4F61E080E092E00E9427248A819B8107
:101410009F7890619B8396E09D83817E80618A8323
:101420001C82BE016F5F7F4F80E092E00E947B23B1
:1014300069E779E080E092E00E94792111E0188765
:1014400019868A85807F81608A87AE01485F5F4FF9
:1014500061E080E092E00E94EE23188788E08987AF
:10146000AE01485F5F4F62E080E092E00E94EE23B1
:1014700080E092E00E94CF212B96CDBFDEBFDF91AE
:10148000CF911F910895CF93DF93C091B822D0914F
:10149000B922BE0180E090E00E94563FC53AD1409B
:1014A00080F021E836E242E45DEB0E94E43F23E372
:1014B00033E345E552E40E94C13E0E94253F862F5A
:1014C0000FC02DE231E24FE95DEB0E94E43F23E3E0
:1014D00033E342E852E40E94C13E0E94253F862F3A
:1014E000DF91CF9108958091B6229091B72208950F
:1014F000BF92CF92DF92EF92FF920F931F93CF9301
:10150000DF931F92CDB7DEB788E08093060680E0B8
:1015100090E0019688329105E1F788E08093050616
:1015200080E090E0019688329105E1F70F2EFBE212
:10153000BF2EF02DB98280EA99E00E94E419C12CF7
:10154000D12C760100E012E12AE730E043E0BE0151
:101550006F5F7F4F80EA99E00E94191A00E616E05B
:10156000FF24F394F801F682B982BE016F5F7F4FCA
:1015700080EA99E00E94341AF801F682E0EAF9E084
:10158000818185FFFDCF80EA8093A009E0EAF9E040
:10159000818186FFFDCFE0EAF9E080E481838081EC
:1015A000BE016F5F7F4F80EA99E00E944A1A8BE28A
:1015B0008983BE016F5F7F4F80EA99E00E94341AF1
:1015C00081E080936606E0EAF9E0818185FFFDCF46
:1015D00086EA8093A009E0EAF9E0818186FFFDCFE9
:1015E000E0EAF9E080E481838081BE016F5F7F4F94
:1015F00080EA99E00E944A1A8BE28983BE016F5FFC
:101600007F4F80EA99E00E94341A81E08093660659
:10161000E0EAF9E0818185FFFDCF88EC8093A009A5
:10162000E0EAF9E0818186FFFDCFE0EAF9E080E4BD
:1016300081838081BE016F5F7F4F80EA99E00E94C5
:101640004A1A8BE28983BE016F5F7F4F80EA99E07F
:101650000E94341A81E080936606E0EAF9E0818115
:1016600085FFFDCF82EA8093A009E0EAF9E081815D
:1016700086FFFDCFE0EAF9E080E481838081BE014E
:101680006F5F7F4F80EA99E00E944A1A8BE289835C
:10169000BE016F5F7F4F80EA99E00E94341A81E0BB
:1016A00080936606E0EAF9E0818185FFFDCF8FE255
:1016B0008093A009E0EAF9E0818186FFFDCFE0EAAE
:1016C000F9E080E481838081BE016F5F7F4F80EA13
:1016D00099E00E944A1A8BE28983BE016F5F7F4FB7
:1016E00080EA99E00E94341A81E080936606E0EA7D
:1016F000F9E0818185FFFDCF88EF8093A009E0EAC2
:10170000F9E0818186FFFDCFE0EAF9E080E48183A2
:101710008081BE016F5F7F4F80EA99E00E944A1A84
:101720008BE28983BE016F5F7F4F80EA99E00E9460
:10173000341A81E080936606E0EAF9E0818185FF52
:10174000FDCF1092A009E0EAF9E0818186FFFDCF8C
:10175000E0EAF9E080E481838081BE016F5F7F4F22
:1017600080EA99E00E944A1A8BE28983BE016F5F8A
:101770007F4F80EA99E00E94341A81E080936606E8
:10178000E0EAF9E0818185FFFDCF81E28093A00945
:10179000E0EAF9E0818186FFFDCFE0EAF9E080E44C
:1017A00081838081BE016F5F7F4F80EA99E00E9454
:1017B0004A1A8BE28983BE016F5F7F4F80EA99E00E
:1017C0000E94341A81E080936606E0EAF9E08181A4
:1017D00085FFFDCF81E88093A009E0EAF9E08181EF
:1017E00086FFFDCFE0EAF9E080E481838081BE01DD
:1017F0006F5F7F4F80EA99E00E944A1A8BE28983EB
:10180000BE016F5F7F4F80EA99E00E94341A81E049
:1018100080936606E0EAF9E0818185FFFDCF81E2F1
:101820008093A009E0EAF9E0818186FFFDCFE0EA3C
:10183000F9E080E481838081BE016F5F7F4F80EAA1
:1018400099E00E944A1A8BE28983BE016F5F7F4F45
:1018500080EA99E00E94341A81E080936606E0EA0B
:10186000F9E0818185FFFDCF8FEA8093A009E0EA4E
:10187000F9E0818186FFFDCFE0EAF9E080E4818331
:101880008081BE016F5F7F4F80EA99E00E944A1A13
:101890000F90DF91CF911F910F91FF90EF90DF900C
:1018A000CF90BF900895AC0183709927892B71F573
:1018B0009A013695279536952795ABE7B4E10E94B6
:1018C00085409695879564E6689F9001699F300DE5
:1018D000112442175307E1F49A01329522952F7093
:1018E00023273F702327AEE3BAE00E94854060E9DA
:1018F00071E0869F9001879F300D969F300D1124D7
:1019000081E04217530729F080E0089580E00895B0
:1019100081E008950F931F93CF93DF93FC018081A3
:101920008C3350F581818C3348F58281883140F5C4
:1019300004810C3038F513811F3130F5C581D68113
:10194000CE01B1DF282F30E0F901EE0FFF1FE20FCB
:10195000F31FEE0FFF1FEE0FFF1FE00FF11DED5500
:10196000FE4D8081181790F4C25BD74081E0C838E3
:10197000D10568F080E00BC080E009C080E007C0BE
:1019800080E005C080E003C080E001C080E0DF911E
:10199000CF911F910F9108952F923F924F925F9296
:1019A0006F927F928F929F92AF92BF92CF92DF926F
:1019B000EF92FF920F931F93CF93DF9300D01F926C
:1019C000CDB7DEB71A0122EB37E0FA012583368363
:1019D000148220E831E541E050E00E945B4049017B
:1019E0005A0169837A838B839C8369017A010F2E64
:1019F000FCE34F2E512C612C712CF02DA301920190
:101A00000E945B40F101608369817A818B819C81B6
:101A100020E13EE040E050E00E945B40122FA30135
:101A200092010E945B40F10121831283C501B40140
:101A30006C5F7F4F8F4F9F4F27E030E040E050E0DA
:101A40000E945B40F10167830F2EFEE68F2EF02D82
:101A5000992493940DE611E00AC0C41AD50AE60A47
:101A6000F70AFFEFAF1ABF0AF101A582B682F101B2
:101A7000A580B680C50117DF811103C0402F512F0B
:101A800002C0482D592D60E070E0C416D506E60668
:101A9000F70618F790E0F1012481FC01EE0FFF1F1B
:101AA000E80FF91FEE0FFF1FEE0FFF1FE20FF11DF2
:101AB000ED55FE4D408150E060E070E0C416D50663
:101AC000E606F70610F12F5FFC01EE0FFF1F8E0FE9
:101AD0009F1F880F991F880F991F01C0232FC41AB9
:101AE000D50AE60AF70AFC01E20FF11DED55FE4D9D
:101AF000408150E060E070E031E0320FC416D5065E
:101B0000E606F70658F7F1012483F101C382249613
:101B1000CDBFDEBFDF91CF911F910F91FF90EF906E
:101B2000DF90CF90BF90AF909F908F907F906F90FD
:101B30005F904F903F902F9008958F929F92AF9219
:101B4000BF92CF92DF92EF92FF920F931F936B01A0
:101B50007C01522F4423BCF030E0ACE3B0E00E94A3
:101B60008540C60ED71EE81EF91EA42F440FBB0BDE
:101B700020E13EE00E9494406C0D7D1D8E1D9F1D56
:101B8000A8010ADF1DC0A42F440FBB0B20E13EE0DB
:101B90000E9494404B015C01252F30E0ACE3B0E0A3
:101BA0000E948540A5019401261B370B480B590B59
:101BB000CA01B9016C0D7D1D8E1D9F1DA801ECDEB3
:101BC0001F910F91FF90EF90DF90CF90BF90AF905B
:101BD0009F908F9008958F929F92AF92BF92CF92D5
:101BE000DF92EF92FF920F931F93CF93DF937C01CD
:101BF00091DE882309F475C0F7011481C581D6816F
:101C0000A381B0E020E831E541E050E00E949A4035
:101C10004B015C01228130E0A0E1BEE00E948540E2
:101C2000860E971EA81EB91E8081880E911CA11CCD
:101C3000B11C218130E0ACE3B0E00E948540750129
:101C40006401C60ED71EE81EF91E112309F1CE014C
:101C50002ADE90E05C01AA0CBB1C8A0D9B1D5C0176
:101C6000AA0CBB1CAA0CBB1C1150F501E10FF11D05
:101C7000ED55FE4DA081B0E020E831E541E050E0B7
:101C80000E949A40C60ED71EE81EF91E1111ECCF15
:101C9000C33BF7E0DF0700F10DE611E00F2EFEE693
:101CA000AF2EF02DBB24B3942197CE01FCDD811122
:101CB00003C0A02FB12F02C0AA2DBB2D20E831E513
:101CC00041E050E00E949A40C60ED71EE81EF91E61
:101CD000C23B87E0D80741F76C2D7D2D8E2D9F2DBF
:101CE00004C060E070E080E090E0DF91CF911F9150
:101CF0000F91FF90EF90DF90CF90BF90AF909F90AB
:101D00008F9008958F929F92AF92BF92CF92DF9261
:101D1000EF92FF92CF93DF93C62FD42F5CDF6B013E
:101D20007C01672B682B692BE1F1CC23F4F02D2F7C
:101D300030E0ACE3B0E00E9485404B015C01AC2F89
:101D4000CC0FBB0B20E13EE00E949440DC01CB01B4
:101D5000880D991DAA1DBB1DA7019601281B390BD3
:101D60004A0B5B0BCA01B9011FC02D2F30E0ACE359
:101D7000B0E00E9485404B015C01AC2FCC0FBB0B47
:101D800020E13EE00E949440A5019401261B370B00
:101D9000480B590BCA01B9016C0D7D1D8E1D9F1D8D
:101DA00003C060E070E0CB01DF91CF91FF90EF9036
:101DB000DF90CF90BF90AF909F908F9008958F92BB
:101DC0009F92AF92BF92DF92EF92FF920F931F9379
:101DD000CF93DF93EC018B017A01CB01FCDE4B0149
:101DE0005C01CE01F8DE681579058A059B0528F4AB
:101DF0009C2F8D2FE801092F182F8D819E81F801CE
:101E000025813681821B930BF701858396832C8174
:101E1000822F90E0F8013481831B910952F4245FF2
:101E20002C83F70185819681009719F001978583AE
:101E300096838C81F8019481891BF7018483DB8070
:101E40008D2D90E0F8012381821B9109E2F48D81B0
:101E50009E8129DD90E02C81FC01EE0FFF1FE80F31
:101E6000F91FEE0FFF1FEE0FFF1FED55FE4DE20FA6
:101E7000F11D31978081D80EDB82F70184818823A0
:101E800011F0815084838B81F8019381891BF701C4
:101E900083832A81822F90E0F8013281831B91098C
:101EA00042F4285E2A83F7018381882311F0815050
:101EB00083838A81F8019281891BF70182832981BA
:101EC000822F90E0F8013181831B910942F4245C58
:101ED0002983F7018281882311F0815082838981CF
:101EE000F8019181891BF70181832881822F90E07D
:101EF000F8013081831B910942F4245C2883F701A7
:101F00008181882311F0815081838881F80190813B
:101F1000891BF7018083DF91CF911F910F91FF9073
:101F2000EF90DF90BF90AF909F908F900895EF92C9
:101F3000FF920F931F93CF93DF93FC0190819F5FDC
:101F40009C3311F0908340C0EF01108281818F5F3C
:101F50008C33C9F582818F5F883199F5F380E480F5
:101F600005811681F394C80199279DDC90E0FC015E
:101F7000EE0FFF1FE80FF91FEE0FFF1FEE0FFF1F01
:101F8000EE0DF11DED55FE4D8081F81211C081E07E
:101F90008E0D8C3059F4093388E0180730F40F5F48
:101FA0001F4F0D831E8380E001C080E08C83F12CE5
:101FB0008F818F5F873011F08F8301C01F82FB827A
:101FC00080E08A8380E08983DF91CF911F910F9118
:101FD000FF90EF9008950F931F93CF93DF9300D05E
:101FE0001F92CDB7DEB78FEF8093700080937100A2
:101FF00080937200809373008093740080937500C7
:102000008093760064E081E490E00E9460246CE1BB
:1020100070E082E00E94BF248A836DE170E082E07C
:102020000E94BF24898389819A81019621F480E4EA
:1020300093E289839A8389819A818B839C83E0E6EA
:10204000F0E082838C8183839FB7F894E0E5F0E031
:102050008081826080839FBF818181FFFDCF9FB798
:10206000F89400E510E0D80116968C911697897FB8
:1020700016968C931697E0E6F0E080E885838BEB6C
:10208000868316968C911697846016968C93808121
:10209000816080839FBF61E080E490E00E946024C3
:1020A0009FB7F894F80180818E7F80839FBF24962C
:1020B000CDBFDEBFDF91CF911F910F9108959FB7E4
:1020C000F894E82FF0E0E059FF4F60958081682395
:1020D00060839FBF08959FB7F894E82FF0E0E05920
:1020E000FF4F8081682B60839FBF0895863011F079
:1020F00060E001C068E18091510081FD26C09FB77A
:10210000F894E0E5F0E08081826080839FBF818168
:1021100081FFFDCF9FB7F894A0E5B0E016968C91B3
:102120001697897F16968C931697E0E6F0E080E884
:1021300085838BEB868316968C9116978460169612
:102140008C938081816080839FBF636084E490E092
:102150000E94602460E480E0B2CF08956F927F9285
:102160008F929F92AF92BF92CF92DF92EF92FF92A7
:102170000F931F93CF93DF931F92CDB7DEB78C01E0
:10218000E62EF42ED22E19D28E2D8F70806BE82E73
:102190008BE28983BE016F5F7F4F80EA99E00E94E6
:1021A000341A81E080936606E0EAF9E0818185FFD8
:1021B000FDCFE092A009E0EAF9E0918196FFFDCF22
:1021C000E0EAF9E080E481838081BE016F5F7F4FA8
:1021D00080EA99E00E944A1A8F2D8F7782958F703E
:1021E0008061E82E8BE28983BE016F5F7F4F80EABA
:1021F00099E00E94341A81E080936606E0EAF9E0F3
:10220000918195FFFDCFE092A009E0EAF9E091818C
:1022100096FFFDCFE0EAF9E080E481838081BE0192
:102220006F5F7F4F80EA99E00E944A1A8F2D8F706E
:10223000F82E8BE28983BE016F5F7F4F80EA99E0C1
:102240000E94341A81E080936606E0EAF9E0918109
:1022500095FFFDCFF092A009E0EAF9E0918196FFA9
:10226000FDCFE0EAF9E080E481838081BE016F5F09
:102270007F4F80EA99E00E944A1A7801DA94AD2CE7
:10228000B12CEFEFAE1ABE0AA00EB11E0F2EFBE26C
:102290006F2EF02D00EA19E00F2EF0E6CF2EF6E0BB
:1022A000DF2EF02D992493946894772476F8F70123
:1022B00081907F016982BE016F5F7F4FC8010E94DC
:1022C000341AF6019582F801918195FFFCCF808246
:1022D000F801918196FFFCCF71828081F601968290
:1022E000BE016F5F7F4FC8010E944A1AEA14FB04C7
:1022F000F1F60F90DF91CF911F910F91FF90EF902A
:10230000DF90CF90BF90AF909F908F907F906F9015
:102310000895FF920F931F93CF93DF931F92CDB732
:10232000DEB7082FF62E142F5CD10F70006B8BE2F6
:102330008983BE016F5F7F4F80EA99E00E94341A63
:1023400081E080936606E0EAF9E0918195FFFDCF98
:102350000093A009E0EAF9E0818186FFFDCFE0EA81
:10236000F9E080E481838081BE016F5F7F4F80EA66
:1023700099E00E944A1A0F2D0F7702950F700061A5
:102380008BE28983BE016F5F7F4F80EA99E00E94F4
:10239000341A81E080936606E0EAF9E0818185FFE6
:1023A000FDCF0093A009E0EAF9E0818186FFFDCF2F
:1023B000E0EAF9E080E481838081BE016F5F7F4FB6
:1023C00080EA99E00E944A1A0F2D0F708BE28983F0
:1023D000BE016F5F7F4F80EA99E00E94341A81E06E
:1023E00080936606E0EAF9E0818185FFFDCF0093E6
:1023F000A009E0EAF9E0818186FFFDCFE0EAF9E09B
:1024000080E481838081BE016F5F7F4F80EA99E025
:102410000E944A1A8BE28983BE016F5F7F4F80EA78
:1024200099E00E94341A81E080936506E0EAF9E0C1
:10243000818185FFFDCF1093A009E0EAF9E0818159
:1024400086FFFDCFE0EAF9E080E48183808181E0CE
:1024500080936606BE016F5F7F4F80EA99E00E941D
:102460004A1A0F90DF91CF911F910F91FF9008951D
:102470000F931F93CF93DF931F92CDB7DEB78CEBF3
:1024800092E296D035D88BE28983BE016F5F7F4F91
:1024900080EA99E0E9D781E080936606E0EAF9E016
:1024A000818185FFFDCF80E48093A009E0EAF9E017
:1024B000818186FFFDCFE0EAF9E080E481838081BD
:1024C000BE016F5F7F4F80EA99E0E4D700E00AC069
:1024D00040E0612F802F1DDF1F5F1038C9F70F5FAD
:1024E000043011F010E0F4CF0F90DF91CF911F91E5
:1024F0000F910895FF920F931F93CF93DF9388233B
:102500008CF1603278F5D42FC82FF62EF694F6941D
:10251000F6942F2D30E0319521953109220F331F8C
:10252000220F331F220F331F260F311D61E070E091
:102530008B0102C0000F111F2A95E2F7682F8F2D23
:102540005ED0D13021F028F0D23039F007C0802B96
:1025500005C0602F6095862301C08027482F6C2F0F
:102560008F2DD7DEDF91CF911F910F91FF900895AE
:1025700046C008950F931F93CF93DF93D82F162F44
:10258000042FC22F3CD0C13021F028F0C23031F0EE
:1025900006C0802B04C00095802301C08027482FEF
:1025A000612F8D2FB6DEDF91CF911F910F9108958E
:1025B0008093BC249093BD240895DC01E42FF0E0C7
:1025C000AF0180E8689F400D511D1124E091BC24AB
:1025D000F091BD24E40FF51F8D9181932150E1F717
:1025E000089520E8829FC0011124860F911DE0917B
:1025F000BC24F091BD24E80FF91F4083089520E822
:10260000829FC0011124860F911DE091BC24F0919E
:10261000BD24E80FF91F80810895FF920F931F9347
:10262000CF93DF93E42FF0E0E80FF11DE138F105DF
:102630001CF0C0E84C2F481B442309F453C0D62F8C
:10264000D695D695D695ED2FF0E0F195E195F10967
:10265000EE0FFF1FEE0FFF1FEE0FFF1FDF01A60F94
:10266000B11DBD01E1E0F0E0DF0102C0AA0FBB1F18
:102670006A95E2F7FA2E213021F098F0223019F114
:1026800031C0C42F1FEF180F012F0C0F602F8D2F9B
:102690006FDF482F4F29602F8D2F3BDEC150A1F7F0
:1026A00021C0C42F1FEF180FFA2EF094012F0C0F2A
:1026B000602F8D2F5DDF482F4F21602F8D2F29DE5A
:1026C000C150A1F70FC0C42F1FEF180F012F0C0F1F
:1026D000602F8D2F4DDF482F4F25602F8D2F19DE56
:1026E000C150A1F7DF91CF911F910F91FF900895F5
:1026F000EF92FF920F931F93CF93DF93442309F43C
:1027000046C0122FD82F9FEF960F940F691303C066
:10271000422FF0DE3CC09F3108F09FE1C62FC695E6
:10272000C695C695092F06950695069567702FEFF5
:1027300030E0A90102C0440F551F6A95E2F7977077
:1027400067E070E0FB01E91BF109790102C0F59433
:10275000E794EA95E2F7C01306C04E21212F6D2FB2
:102760008C2F08DF14C0212F6D2F8C2F03DFCF5F3C
:10277000C01740F4212F4FEF6D2F8C2FFBDECF5F62
:10278000C017C0F3212F4E2D6D2F802FF3DEDF9168
:10279000CF911F910F91FF90EF900895FF920F93AB
:1027A0001F93CF93DF93D82F162FC42FF22E202FF5
:1027B00034DF6FEF6F0D610F202F4C2F8D2F2DDF2A
:1027C000202F4F2D612F8D2F93DF8FEF8C0F202F18
:1027D0004F2D612F8D0F8CDFDF91CF911F910F91C6
:1027E000FF900895FF920F931F93CF93DF932223BF
:1027F00069F0C22FF42E182FDFEFD60F6D2F6C0F5C
:10280000202F4F2D812F09DFC150C1F7DF91CF91CC
:102810001F910F91FF9008955F926F927F928F9218
:102820009F92AF92BF92CF92DF92EF92FF920F935F
:102830001F93CF93DF93882E962EC42FA22E411183
:1028400003C0422F57DE73C0E42EF12CEE0CFF1CA8
:10285000F194E194F10883E0E80EF11CB62EC82C47
:10286000D82C11E0D0E0802F8370582E802F8C70F0
:10287000682E802F8073782E007C552069F02A2DD9
:10288000412F6B2D8C2F880D33DF2A2D41E04C0F0B
:10289000692D6C1B8D2D2CDF662069F02A2D412FB0
:1028A0006B2D882D8C1B24DF2A2D41E04C0F692DC8
:1028B0006C1B8C2D1DDF772061F02A2D412F692D97
:1028C000882D8C1B15DF2A2D41E04C0F692D8C2D96
:1028D0000FDF002361F02A2D412F692D8C2F880DE9
:1028E00007DF2A2D41E04C0F692D8D2D01DFFF20E0
:1028F00054F48D2F90E0880F991F880F991F06962A
:10290000E80EF91E0CC0ED2FF0E0EC1BF109EE0F04
:10291000FF1FEE0FFF1F3A96EE0EFF1EC150DF5F46
:102920001F5FD394CA94BA94CD1708F0A6CFDF9155
:10293000CF911F910F91FF90EF90DF90CF90BF90BC
:10294000AF909F908F907F906F905F900895BF920F
:10295000CF92DF92EF92FF920F931F93CF93DF936B
:102960007C01D62FDC011196CC901197C694C694A9
:10297000C694B42EB694B694B69412968C918823CD
:1029800031F0813009F043C0C11024C040C0C110F3
:1029900028C03DC0C0E0DB2CD00E909FF001919F7D
:1029A000F00D1124EC0FF11DD70113964D915C91A0
:1029B0001497E40FF51F44916C2F6D0F8D2DA9DC3A
:1029C000CF5FF7019081C91740F30F5F1F4F0C15C0
:1029D00018F01DC000E010E0D7019C919111DACFF2
:1029E000F4CF00E010E0F70120816B2D600F209FF5
:1029F000C001219F900D11240380F481E02D4D2F03
:102A00008E0F9F1FABDB0F5F1F4F0C1560F3DF9125
:102A1000CF911F910F91FF90EF90DF90CF90BF90DB
:102A20000895EF92FF920F931F93CF93DF937C0152
:102A3000DC0115968C9115970BEA809F012D1124CE
:102A4000D02FD69516968C918D1302C0662349F02F
:102A500000E028E140E868E080E0C4DE81E08093A7
:102A6000BE24F701D68300E028E144E068E080E07E
:102A7000B9DED70115964C918BEA489F812D112420
:102A80008695982F990F890F481B440F440F440FC8
:102A9000485F60E081E090E25ADF8091BE248823A5
:102AA000A9F1CD2FCC0FCD0F0D2F10E00F5F1F4FD1
:102AB000C801880F991F080F191F8C2F90E08017ED
:102AC000910714F5F7018481C817F0F4D8E0EC2FD2
:102AD000F0E0EE0FFF1FD70112968D919C91139796
:102AE000E80FF91F20E130E24D2F65E080819181F0
:102AF000F5D3CF5F8C2F90E0801791072CF4D85F2F
:102B0000F7018481C81718F31092BE24DF91CF918A
:102B10001F910F91FF90EF9008950F93CF93DF9344
:102B2000EC0100E020E240E860E080E05BDE20E1D4
:102B300030E240E060E088819981D0D361E0CE014D
:102B400070DFDF91CF910F9108956D3059F118F436
:102B5000683059F105C0FC016632B1F0683211F0FD
:102B60008FEF08952581422F50E0848190E00197F6
:102B70004817590711F4158202C02F5F258360E0C2
:102B8000CF014FDF8FEF08958581882319F08150A1
:102B9000858303C084818150858360E0CF0141DF5C
:102BA0008FEF0895FC01858108958EEF08950F93AE
:102BB000662339F0FC01448560E086E090E2C7DEE0
:102BC00007C000E028E044E0FC01648580E00ADE04
:102BD0000F910895DF92EF92FF920F931F93CF937F
:102BE000DF93CDB7DEB76897CDBFDEBF182FD62EE7
:102BF00000E027E040E868E180E0F4DD8FE49BE45A
:102C0000A0E08B839C83AD839E012E5F3F4FAE017E
:102C10004F5F5F4F60E170E2CE0103968ED38981F2
:102C200040E850E0481B51099A0112F42F5F3F4FD2
:102C30007901F594E7941123C1F020E130E248E1F5
:102C40006E2DCE01039621D3DD2039F06CEF6E0D91
:102C500048E186E090E27BDE0FC000E028E044E03F
:102C600068E18CEF8E0DBEDD07C000E027E044E197
:102C700068E18CEF8E0DB6DD6896CDBFDEBFDF91CB
:102C8000CF911F910F91FF90EF90DF900895CF9219
:102C9000DF92EF92FF920F931F93CF93DF93CDB705
:102CA000DEB72997CDBFDEBF7C01662381F000E04F
:102CB00027E040E8DC011C966C9180E093DD20E188
:102CC00030E2F701448565E08081918107D3D70127
:102CD0001D968C911D97882339F01C964C916CE7BA
:102CE0008BE090E234DE07C000E028E044E0F7012A
:102CF00064858CE777DDD70112968C91129781302D
:102D000039F514968C9114978F9313968C918F9319
:102D100088EC91E29F938F931F9289E08F93FE013D
:102D200031966F01FF93EF930E94DE4000E027E0B1
:102D300042E3D7011C966C918AE454DD20E130E235
:102D4000F70144856AE4C601A0D2CDBFDEBF20C032
:102D500081111EC0D70115961C91159700E027E040
:102D600042E31C966C918AE43DDDE12FF0E0EE0F2A
:102D7000FF1FD70113968D919C911497E80FF91FAF
:102D800020E130E21C964C916AE480819181A6D2C8
:102D90002996CDBFDEBFDF91CF911F910F91FF909C
:102DA000EF90DF90CF900895CF92EF92FF920F9324
:102DB0001F93FC0140835183628300871187E28661
:102DC000F386C486158606831783611104C02383A6
:102DD0003483058302C0038314831F910F91FF90F6
:102DE000EF90CF900895FC0110861582148281E047
:102DF00081870895CF93DF93EC01DB0114969C91BA
:102E00001497933038F5990F990F990F9C87149662
:102E10002C911497211104C0CD93DC93119710C00D
:102E2000ED91FC911197223038F091E00684F785FE
:102E3000E02D9F5F9213FACFC687D787E88BF98B77
:102E40001296CD93DC93139714968C9114978F5F01
:102E500014968C93DF91CF910895EF92FF920F9388
:102E60001F93CF937C0100E020E240E860E080E027
:102E7000B9DCF70184818823B1F000811181C0E0C1
:102E800061E0C80104DFF80106851785CF5FF7010F
:102E90009481C917A8F360E081E09CDE61E0F7014E
:102EA0008081918184DECF911F910F91FF90EF90EF
:102EB0000895CF93DF93EC016D3009F462C020F4E4
:102EC000683009F480C092C0663279F1683209F046
:102ED0008DC08D85882309F48CC08A81813081F46E
:102EE0008B819C81288539852817390724F401971F
:102EF0008B839C8314C08A859B858B839C830FC0A6
:102F000081110DC08D81482F50E028853985241707
:102F100035071CF481508D8302C08A858D8360E063
:102F2000CE01B5DE8FEF90E069C08D85882309F46E
:102F300063C08A81813081F48B819C812A853B85A5
:102F40008217930724F401968B839C8314C0888591
:102F500099858B839C830FC081110DC08D81482F73
:102F600050E02A853B85421753071CF48F5F8D8301
:102F700002C088858D8360E0CE0189DE8FEF90E00E
:102F80003DC08D858823B9F08A81813049F41D8642
:102F900060E0CE017CDE8B819C818E839F832EC07E
:102FA000811111C01D8660E0CE0171DE8D8190E03F
:102FB0008E839F8323C081E08D8760E0CE0167DE32
:102FC0008FEF90E01BC01D868A81813029F48E81AD
:102FD0009F818B839C8304C0811102C08E818D836D
:102FE00060E0CE0154DE8EEF90E008C08FEF90E0FD
:102FF00005C08FEF90E002C08FEF90E0DF91CF919E
:103000000895EF92FF920F931F93CF93DF93EC01FC
:103010008C81882309F4CAC08985882351F1A8814D
:10302000B98190E012968C911297813069F41396D1
:103030002D913C911497E92FF0E0EE0FFF1FE40F64
:10304000F51F208331830CC0E92FF0E0EE0FFF1F46
:10305000E40FF51F15962C91159730E020833183EE
:103060001E960D90BC91A02D9F5F8C819817D0F279
:103070001986088119812D818FEF820F8E3F38F4D8
:1030800090E0F801068517859F5F9213FACF7A01C9
:1030900088858823E1F0C8010CDF8E839F838E3FF3
:1030A000910521F418868FEF90E08BC08F3F91053A
:1030B00009F47FC04D8150E0440F551FF701E40F24
:1030C000F51F8083918318868FEF90E07AC06D3072
:1030D00009F462C020F4683009F46EC004C066329E
:1030E00089F1683219F08FEF90E06BC02F3F51F4F7
:1030F0001D8260E081E06EDD61E0C80158DD8FEF88
:1031000090E05FC030E08C8190E00197281739078C
:1031100074F460E0C8014BDD8D818F5F8D8361E0C9
:10312000F8018685978543DD8FEF90E04AC060E027
:10313000C8013DDD8FEF8D8361E081E04BDD8FEFD6
:1031400090E03FC02F3F69F460E081E043DD8C8177
:1031500081508D8361E08A819B8129DD8FEF90E032
:1031600030C0222371F060E0C80121DD8D818150E3
:103170008D8361E0F8018089918919DD8FEF90E0FE
:1031800020C060E0C80113DD8FEF8D8361E081E036
:1031900021DD8FEF90E015C02F3F89F06DE0C80171
:1031A00088DE81E088878FEF90E00BC08EEF90E0A3
:1031B00008C08FEF90E005C08EEF90E002C08DEF69
:1031C00090E0DF91CF911F910F91FF90EF900895C4
:1031D000AF92BF92CF92DF92EF92FF920F931F9325
:1031E000CF93DF93C82FE62EB42E690100E0F901DA
:1031F000248143816B2D8E2DF5DAF60180818111BA
:1032000039C08381282F269526952695877009F049
:103210002F5FF601A4802A9D900111248C2F90E04D
:103220004581841B9109289FA001299F500D389F3B
:10323000500D112401811281040F151FF601F38036
:10324000FF20A1F0D0E0C0E08C2F8E0D9C2F977056
:1032500021F4F801D4910F5F1F4FDD231CF441E0EE
:103260006B2D48D9DD0FCF5FCF11EECFB394AA9469
:10327000A110E4CFDF91CF911F910F91FF90EF90BC
:10328000DF90CF90BF90AF900895DF92EF92FF92C2
:103290000F931F93CF93DF93042F7901EC01162F27
:1032A000D62E89918A3031F4F70184818F5F080F1F
:1032B0001D2D09C08D3039F09701402F612F88DF17
:1032C000F7018381180F88818111EBCFDF91CF91B6
:1032D0001F910F91FF90EF90DF900895DF92EF9292
:1032E000FF920F931F93CF93DF93EC01042F79018B
:1032F000FC019491892F9923C1F0162FD62E8A3084
:1033000031F4F70184818F5F080F1D2D09C08D30C6
:1033100039F09701402F612F5BDFF7018381180F90
:103320002196FE0184918111EACFDF91CF911F9107
:103330000F91FF90EF90DF900895CF93DF93FB0103
:10334000EA01D90173816481FC01562F90E031E0DC
:1033500081918A3019F4560F90E006C08D3021F02B
:10336000970F391708F4392F80818111F1CF3883F5
:103370005C93DF91CF910895CF93DF93FC0170961A
:1033800020E030E0C62FD0E0DE01022E02C0B5956D
:10339000A7950A94E2F7A0FD50832F5F3F4F319627
:1033A0002830310589F740FF0AC041FF03C0FC0106
:1033B000658302C0FC016683FC01618302C0FC01DD
:1033C0006283DF91CF910895803A28E0920729F433
:1033D00060E183E00C945F100895803B28E0920741
:1033E00029F460E283E00C945F100895803A29E0AC
:1033F000920729F460E184E00C945F100895803B0B
:1034000029E0920729F460E284E00C945F100895AB
:10341000803A2AE0920729F460E185E00C945F107D
:103420000895803A9B4021F460E186E00C945F109F
:1034300008950F931F93CF93DF9300D000D0CDB7A3
:10344000DEB709831A832B833C834D831E82BE0122
:103450006F5F7F4F0E94BB2C2696CDBFDEBFDF91F2
:10346000CF911F910F910895FB018081E82FE69580
:10347000E695E69540E2E49FF0011124FA5F87703B
:1034800021E030E0A90102C0440F551F8A95E2F700
:1034900046830895FB018081E82FE695E695E69541
:1034A00040E2E49FF0011124FA5F877021E030E0F0
:1034B000A90102C0440F551F8A95E2F7458308957C
:1034C0001092D4291092E0291092E129E6EDF9E258
:1034D00081EA808380E281831282138214821582C2
:1034E00082E090E08683978310861186E2EEF9E20F
:1034F00080E092ECA1E0B0E080839183A283B3836B
:103500001482158288E086838091D4298F5F80930E
:10351000D42981E008958091D42981508093D429C1
:1035200008958091D32981508093D3298091D32904
:103530001092D229089580E0089580E008950895BA
:10354000FF920F931F93CF93DF938091C224811139
:103550009BC00E942432882351F0C091C324D09193
:10356000C4240E943132C817D90759F48DC0C091C4
:10357000C324D091C4240E942C32C817D90709F45F
:1035800083C0DFB7F894C091C524EC2FF0E0EE0FB4
:10359000FF1FEA53FB4D80819181892B09F58091B2
:1035A000BF249091C02401968093BF249093C0249F
:1035B0000E942432811107C08091BF249091C024C1
:1035C0008436910558F00E942432882349F0809176
:1035D000BF249091C0248032934010F4DFBF54C0C8
:1035E0001092BF241092C0248091C124811106C082
:1035F00081E0C11180E08093C52404C081E0C11145
:1036000080E0C82F81E08093C224DFBFD0E0FE01BC
:10361000EE0FFF1FEA53FB4DFF24F394808191814D
:103620008034914009F4F12CFF2091F00E94243263
:10363000882339F00E9431328093C3249093C424AC
:103640000BC00E942C328093C3249093C42404C0E6
:103650001092C3241092C424FE01EE0FFF1FEA5300
:10366000FB4D2081318180E491E0C89FA001C99F7A
:10367000500DD89F500D112446535B4D0AE41BE1B9
:103680006F2D81E80E941533DF91CF911F910F912B
:10369000FF900895811115C02091C52481E090E02C
:1036A000222311F080E090E0880F991FFC01EA537B
:1036B000FB4D108211821092C1241092C22480E02E
:1036C0003FCF089580E03CCF08958091812B8823DF
:1036D000CCF480768032E9F58091822B8132D9F565
:1036E0008091872B9091882B0797B9F5E1E8FBE251
:1036F00082EE99E28087918787E090E082879387C6
:1037000081E008958076803251F58091822B80325D
:1037100019F08232B9F025C08091872B9091882BC7
:10372000079709F5E1E8FBE28FE99AE1848795873D
:1037300082EE99E28087918787E090E08287938785
:1037400081E008958091832B81700E94503681E042
:10375000089580E0089580E0089580E0089580E075
:10376000089580E0089580E008954FB7F89420917F
:103770004B2730914C27E0914D27F0E0EE0FFF1FD3
:10378000E25BF84D808191814FBF821B930B0895BE
:10379000ECDF21E0892B09F420E0822F08950F93BC
:1037A0001F93CF93DF939FB7F89420914D2780917B
:1037B0004A27811110C060914B2770914C27C22F6E
:1037C000D0E0FE01EE0FFF1FE25BF84D408151811A
:1037D0006417750718F49FBF80E022C010924B2732
:1037E00010924C2781E0211180E080934D2781E0E9
:1037F00080934A279FBF80E0CBDF80E491E0C89FA1
:10380000A001C99F500DD89F500D11244E5A584DFC
:1038100007E41CE120E431E061E082E00E9415331E
:10382000DF91CF911F910F9108951092D32910929B
:10383000C2241092C1241092C524E6ECF4E2108256
:103840001182128213821092C3241092C42480E049
:1038500077DE10924A2710924D27EEE4F7E21082AD
:1038600011821282138210924B2710924C2780E013
:1038700096DF882359F09091D3299F5F9093D329A5
:103880009091D329913011F49093D22908950F93F8
:103890001F93811126C080914D27E1E08111E0E066
:1038A000842F6115710591F4F0E020E431E0E29F8E
:1038B000A001E39F500DF29F500D11244E5A584D18
:1038C00007E41CE161E00E9415330BC0F0E0EE0F4D
:1038D000FF1FE25BF84D6083718310924A2780E0FE
:1038E0005EDF1F910F91089580E052CF0895EF920F
:1038F000FF921F93CF93DF9311E08091E8298930E5
:1039000009F010E0A0E0B0E0C0E4D1E06FB7F894B7
:1039100020914B2730914C2780914D2790E0FC015E
:10392000EE0FFF1FE25BF84D408151816FBF2417FE
:10393000350730F08091D2298111E8CF90E01EC088
:103940008C9FF0018D9FF00D9C9FF00D1124E20FD4
:10395000F31FEE5AF84D80817D01E82A2F5F3F4F1B
:1039600020934B2730934C2780E019DF112321F05F
:10397000BE2DAA2710E0CACF8E2D9F2DDF91CF91AB
:103980001F91FF90EF90089580E0B1CF08959FB709
:10399000F8948091C524E82FF0E0EE0FFF1FEA5362
:1039A000FB4D20813181203441E0340789F440917E
:1039B000C22441110DC04091C124411109C021E030
:1039C0002093C124811120E02093C52420E030E021
:1039D0009FBF80E491E0821B930B0895D8DF21E024
:1039E000892B09F420E0822F0895FF920F931F93F3
:1039F000CF93DF93F62E172F01E08091E8298930CD
:103A000009F000E0C0E4D1E080E0E8DF811107C008
:103A10008091D2298111F8CF80E090E028C04FB783
:103A2000F8942091C52430E0F901EE0FFF1FEA530E
:103A3000FB4D80819181BC016F5F7F4F60837183FB
:103A40002C9FF0012D9FF00D3C9FF00D11248E0F47
:103A50009F1FFC01E653FB4DF0824FBF002329F06E
:103A6000F12E110F110B00E0CFCF81E090E0DF913C
:103A7000CF911F910F91FF900895BC0180E0B5CFC9
:103A80000895E091EE29F091EF290190F081E02D69
:103A9000228133812E0F3F1FFC014081E40FF11D75
:103AA000E217F307B8F481818430B9F0861309C0B6
:103AB00005C081818430A1F0861303C08E2F9F2F13
:103AC00008958081E80FF11DE217F30790F380E07D
:103AD00090E0089580E090E0089580E090E00895FF
:103AE00080E090E008958091832B8F770C942632AC
:103AF00008959091F029992381F1E091EE29F091B8
:103B0000EF290190F081E02D9481891740F5E09331
:103B1000EC29F093ED29228133812E0F3F1FE2170C
:103B2000F307F8F49181943061F49281981309C0FD
:103B30009381961306C0E093EC29F093ED2981E080
:103B400008959081E90FF11DE217F30758F3E09310
:103B5000EC29F093ED2980E0089580E0089580E05D
:103B6000089580E00895EF92FF921F93CF93DF9323
:103B7000C82F60E0BEDF182F882381F1A091EE29C5
:103B8000B091EF29EC2FF0E0EE0FFF1F12968D9110
:103B90009C911397E80FF91FE080F180D7011696EA
:103BA000ED91FC9117971995682F8C2FA2DF182F94
:103BB0008823A1F0C091EC29D091ED2965E0CE01D8
:103BC00060DFEC01892B21F08A810E941934F6CF45
:103BD000D7011296ED91FC9113971995812FDF91E2
:103BE000CF911F91FF90EF9008951F93CF93DF9394
:103BF000182F7FDF882341F1C091EC29D091ED2966
:103C000065E0CE013EDFEC01892B49F04C815D81FE
:103C10006B818A810E943B328111F2CF15C0A09145
:103C2000EE29B091EF29E12FF0E0EE0FFF1F129681
:103C30008D919C911397E80FF91F0190F081E02D71
:103C40000190F081E02D1995DF91CF911F9108959A
:103C50000C94AF310895CF938091F0298823C1F05F
:103C6000E091EE29F091EF290190F081E02D84811F
:103C7000882371F0C0E08C2F76DFCF5FE091EE29D2
:103C8000F091EF290190F081E02D8481C81798F31D
:103C90001092F02981E090E08093F4299093F52927
:103CA000CF910895CF938091F029882349F1A09175
:103CB000EE29B091EF29ED91FC9111978481882331
:103CC000F9F0C0E0EC2FF0E0EE0FFF1F12968D919F
:103CD0009C911397E80FF91F0190F081E02D00846B
:103CE000F185E02D309709F01995CF5FA091EE296D
:103CF000B091EF29ED91FC9111978481C81710F3D1
:103D0000CF9108950F931F93CF93DF93E1E8FBE2E8
:103D10001286138614861586168617868081882358
:103D20000CF071C22091872B3091882B2115310521
:103D300009F064C25FC28F7109F0AEC09091822B0E
:103D4000963081F0983009F49CC09111A5C02230C2
:103D5000310509F0D8C162E070E084EF99E20E9479
:103D600034325AC28091832B9091842B292F332790
:103D700022303105B1F024F42130310541F0BAC1CF
:103D800023303105F1F12F30310561F1B3C180915C
:103D90002B2090912C20DC016C9170E00E94343239
:103DA00061C0E0912B20F0912C202189821708F02E
:103DB000AAC19927880F991F880F991FE0912D207C
:103DC000F0912E20E80FF91F80819181FC01628122
:103DD00073810E943432E091892BF0918A2B82E02A
:103DE000818340C080912F2090913020009709F46A
:103DF0008AC1DC0112966D917C9113970E94343236
:103E000031C099278130910599F058F082309105A1
:103E100009F4FEC1039709F076C12CE081E99BE229
:103E20000AC064E070E08AEC90E20E9434321AC06A
:103E300080EC90E229E0382FA2E9B0E2E82FF92FD8
:103E4000819190E08D939D938E2F831B8217C0F3F9
:103E5000622F660F6E5F6093902070E080E990E2C1
:103E60000E943432E1E8FBE2868197812285338526
:103E70008217930708F0D0C180938B2B90938C2BE3
:103E8000CBC12130310509F03EC161E070E080EF27
:103E900099E20E943432C0C18130E9F59091822BC1
:103EA0009A30C9F52130310509F02DC18091F029F2
:103EB000882309F428C1C091852BD091862B0091CD
:103EC000EE291091EF29D801ED91FC918481C8175A
:103ED00008F019C160E08C2F0CDE882309F413C1AF
:103EE000CE019927880F991FD8011296ED91FC9168
:103EF0001397E80FF91F0190F081E02D86819781DB
:103F0000FC0119958093F22961E070E082EF99E25B
:103F10000E94343281C1823009F0F5C08091822B39
:103F20008111EAC02230310509F0EDC08091852B66
:103F30000E94C33290E08093EA299093EB2962E0DB
:103F400070E08AEE99E20E94343266C18F7109F006
:103F500084C09091822B933009F4D0C018F4913032
:103F6000A1F07BC0953019F0993039F176C080917D
:103F7000872B9091882B892B09F0C5C083E79DE1A1
:103F800080938D2B90938E2B47C18091872B90919E
:103F9000882B892B09F0B7C08091832B9091842BBB
:103FA000019709F0B0C08091F4299091F5298D7F97
:103FB0008093F4299093F5292FC18091872B9091BC
:103FC000882B892B09F09FC00E942932882309F48D
:103FD0009AC02091832B3091842B3327E0912B20A2
:103FE000F0912C20818990E08217930708F48BC010
:103FF00032DE8091832B9091842B8093F02988234B
:1040000009F40AC199278150904C880F991F880F95
:10401000991FE0912D20F0912E20E80FF91FE093D9
:10402000EE29F093EF290190F081E02D848188231F
:1040300009F4F2C0C0E060E08C2FD7DD882309F4DA
:1040400062C0CF5FE091EE29F091EF290190F081FD
:10405000E02D8481C81778F3DFC08130E1F49091BE
:10406000822B9B30C1F48091872B9091882B892BD8
:1040700009F049C08091F029882309F444C0E1E89F
:10408000FBE2C481D2818C2F6EDD8823E1F16D2F9C
:104090008C2FABDD36C08230B1F58091822B813020
:1040A00019F0833091F02CC08091872B9091882B50
:1040B000892B49F58091832B9091842B892B19F5BD
:1040C0008091852B0E94DE321CC08091872B9091BD
:1040D000882B892BC1F48091832B9091842B892B81
:1040E00091F4C1E8DBE28C810E94D0338C810E9484
:1040F000353407C080E005C080E003C080E001C027
:1041000080E081118AC08091812B8F71813071F59F
:104110008091F029882351F10091852B1091862BF5
:10412000C091EE29D091EF29E881F98184810817A7
:10413000E8F460E0802FDDDC8823C1F0F801FF2780
:10414000CF01880F991FEA81FB81E80FF91FC08119
:10415000D181EE81FF811995682F802FCADC8823D9
:1041600029F0EC81FD811995811157C08091812B37
:104170008F71823009F040C08091F0298823B1F11D
:10418000A091EE29B091EF29ED91FC9111978481D6
:10419000882371F1C0E0EC2FF0E0EE0FFF1F1296C4
:1041A0008D919C911397E80FF91F00811181D8011F
:1041B0001696ED91FC9117971995682F8C2F99DC25
:1041C000882359F1D8011496ED91FC911597199512
:1041D000811123C0CF5FA091EE29B091EF29ED911D
:1041E000FC9111979481C917B0F217C080E015C0F7
:1041F00080E013C080E011C080E00FC0982F90765F
:1042000009F081CF98CD982F907609F07CCF9ECE83
:104210002FE080EB90E20FCE81E0DF91CF911F91F4
:104220000F91089543E050E061E080EE97E0A4D85C
:1042300043E050E062E080EE97E09ED843E050E03B
:1042400060E180E696E098D841E050E460E280E6E4
:1042500096E092D840E05BE160E280E896E08CD89E
:1042600040E05BE162E080EA96E086D840E05BE116
:1042700064E080EA96E080D843E050E062E080E6C7
:1042800096E07AD843E050E068E080E696E074D8A3
:1042900043E050E068E080EA96E06ED843E050E00A
:1042A00061E080E696E068D843E050E068E080E0B6
:1042B00096E062D841E050E060E180E896E05CD8AA
:1042C00043E050E062E080E696E056D843E050E0FC
:1042D00068E080E696E050D840E050E064E080E698
:1042E00096E04AD843E050E060E180EA96E044C8B6
:1042F00008954FB7F894282F392F211582E03807F9
:1043000029F460937D2B70937E2B07C020343240BC
:1043100021F460937B2B70937C2B4FBF0895811504
:1043200022E0920769F48091F72991E0980F909329
:10433000F729811114C062E081E00C945F100895A8
:104340008034924061F48091F62991E0980F909327
:10435000F629811104C062E082E00C945F10089598
:10436000811522E0920761F48091F72981508093B2
:10437000F729811113C062E081E00C946B1008955D
:104380008034924059F48091F62981508093F62927
:10439000811104C062E082E00C946B1008951F93B9
:1043A000CF93DF93EC011FB7F894B9DF8881816068
:1043B00088831FBF8091762B8F3F09F4FFCF9FB773
:1043C000F894E5E7FBE281818F5F81839FBFDF91F6
:1043D000CF911F9108951F920F920FB60F92112443
:1043E0000BB60F922F933F934F935F936F937F93EF
:1043F0008F939F93AF93BF93EF93FF9340912402CA
:1044000050912502E0917D2BF0917E2B61E080E0C0
:1044100092E01995FF91EF91BF91AF919F918F918C
:104420007F916F915F914F913F912F910F900BBEB4
:104430000F900FBE0F901F9018951F920F920FB6FE
:104440000F9211240BB60F922F933F934F935F93CC
:104450006F937F938F939F93AF93BF93EF93FF934C
:1044600040912C0250912D02E0917D2BF0917E2BFA
:1044700062E080E092E01995FF91EF91BF91AF91DA
:104480009F918F917F916F915F914F913F912F916C
:104490000F900BBE0F900FBE0F901F9018951F929C
:1044A0000F920FB60F9211240BB60F922F933F93DA
:1044B0004F935F936F937F938F939F93AF93BF932C
:1044C000EF93FF934091340250913502E0917D2BA0
:1044D000F0917E2B64E080E092E01995FF91EF91DE
:1044E000BF91AF919F918F917F916F915F914F910C
:1044F0003F912F910F900BBE0F900FBE0F901F900A
:1045000018951F920F920FB60F9211240BB60F92AF
:104510002F933F934F935F936F937F938F939F93CB
:10452000AF93BF93EF93FF9340913C0250913D02B4
:10453000E0917D2BF0917E2B68E080E092E0199570
:10454000FF91EF91BF91AF919F918F917F916F916B
:104550005F914F913F912F910F900BBE0F900FBE27
:104560000F901F9018951F920F920FB60F92112463
:104570000BB60F922F933F934F935F936F937F935D
:104580008F939F93AF93BF93EF93FF9340916402F8
:1045900050916502E0917B2BF0917C2B61E080E4EF
:1045A00092E01995FF91EF91BF91AF919F918F91FB
:1045B0007F916F915F914F913F912F910F900BBE23
:1045C0000F900FBE0F901F9018951F920F920FB66D
:1045D0000F9211240BB60F922F933F934F935F933B
:1045E0006F937F938F939F93AF93BF93EF93FF93BB
:1045F00040916C0250916D02E0917B2BF0917C2BED
:1046000062E080E492E01995FF91EF91BF91AF9144
:104610009F918F917F916F915F914F913F912F91DA
:104620000F900BBE0F900FBE0F901F9018951F920A
:104630000F920FB60F9211240BB60F922F933F9348
:104640004F935F936F937F938F939F93AF93BF939A
:10465000EF93FF934091740250917502E0917B2B90
:10466000F0917C2B64E080E492E01995FF91EF914A
:10467000BF91AF919F918F917F916F915F914F917A
:104680003F912F910F900BBE0F900FBE0F901F9078
:1046900018951F920F920FB60F9211240BB60F921E
:1046A0002F933F934F935F936F937F938F939F933A
:1046B000AF93BF93EF93FF9340917C0250917D02A3
:1046C000E0917B2BF0917C2B68E080E492E01995DF
:1046D000FF91EF91BF91AF919F918F917F916F91DA
:1046E0005F914F913F912F910F900BBE0F900FBE96
:1046F0000F901F901895DF92EF92FF920F931F93E8
:10470000CF93DF93EC018B01C11522E0D20771F446
:1047100061E270E082E033D1E82EF12C60E270E0DB
:1047200082E02DD1FE2CEE24E82A10C08034924085
:1047300051F565E270E082E022D1E82EF12C64E2CE
:1047400070E082E01CD1FE2CEE24E82ADFB6F8945B
:10475000CE01E5DD888192E09883EC86FD86F80144
:1047600025813681288F398F92819A8394819C8309
:1047700093819B839181998381709081892B888318
:10478000CE01EEDDDFBEDF91CF911F910F91FF9043
:10479000EF90DF900895FF920F931F93CF93DF93D5
:1047A000EC018B01FFB6F894BADD8881807CF801BA
:1047B0008083888D998D858396838A8182838C817D
:1047C00084838B81838389818183CE01C9DDFFBE90
:1047D000DF91CF911F910F91FF900895CF92DF92BB
:1047E000EF92FF920F931F93CF93DF937C01D62E0E
:1047F0008A01862F837029F4962F9695969582E0EC
:1048000002C0962F80E090FF8F5FE701A09698E0AE
:10481000899FC00DD11D1124CFB6F894C7017FDD4B
:10482000F8018081888382818A8381818983D0FE97
:1048300002C083818E83C70193DDCFBEDF91CF910C
:104840001F910F91FF90EF90DF90CF900895CF923E
:10485000DF92EF92FF920F931F93CF93DF937C0130
:10486000D62E8A01862F837029F4962F96959695D9
:1048700082E002C0962F80E090FF8F5FE701A09654
:1048800098E0899FC00DD11D1124CFB6F894C701BF
:1048900046DD8881F80180838A81828389818183D2
:1048A000D0FE02C08E818383C7015ADDCFBEDF9167
:1048B000CF911F910F91FF90EF90DF90CF900895CF
:1048C0001BBEFC0128ED24BF60830895DC01E0ECF1
:1048D000F1E097859923ECF3ECECF1E080818860BE
:1048E0008083B05F8C919081977F90830895E0ECF6
:1048F000F1E087858823ECF38091CF0181FF07C029
:1049000086E38093CA0161E08BEC91E0D9CF0895F2
:10491000E0ECF1E097859923ECF3ACECB1E09C91ED
:1049200098609C93E82FF0E0F05F60838C91877F24
:104930008C930895FF920F931F93CF93DF93182FBB
:10494000F92EC62F0091CA01D2DFE0ECF1E02785F5
:104950002223ECF36C2F812FDBDFC0ECD1E01A8235
:10496000F982188385E38A8761E08BEC91E0A8DF08
:104970000A87DF91CF911F910F91FF900895409189
:10498000CA01E62FF72F8093CA0184914093CA0190
:10499000089510922004E0E2F4E0218120FDFDCF93
:1049A000E0E2F4E0648375838683978381E080830B
:1049B000089580E180932104E0E2F4E0818184FDA8
:1049C000FDCF60912404709125048091260490917C
:1049D00027040895CF93DF93D82FC091F10064E0AE
:1049E00080E00E945F10CC237CF0C0FF04C0D11196
:1049F0000DC083E010C0C1FD0BC082E08093F000C9
:104A0000C2FD08C080E007C081E005C082E003C0AD
:104A100084E001C085E0DF91CF910895CF93DF93CB
:104A200064E080E00E945F10C0EFD0E08881826087
:104A3000888361E080EF90E043DF88818460888331
:104A400080E090E00196803223E09207D9F7E0EF12
:104A5000F0E0808188608083818183FFFDCF1092A8
:104A60002004E0E2F4E0818180FDFDCFE0E2F4E0AB
:104A70008FEF9FEFDC0180879187A287B387148235
:104A8000158216821782818180FDFDCFE0E2F4E07D
:104A9000128281E08083818180FDFDCFDF91CF9103
:104AA00008951F920F920FB60F9211240BB60F921A
:104AB0002F933F934F935F936F937F938F939F9326
:104AC000AF93BF93CF93DF93EF93FF9310922204A2
:104AD000C0917F2BD091802B209719F06ADFFE01C7
:104AE0001995FF91EF91DF91CF91BF91AF919F9178
:104AF0008F917F916F915F914F913F912F910F9087
:104B00000BBE0F900FBE0F901F9018951F920F9223
:104B10000FB60F9211240BB60F922F933F934F9322
:104B20005F936F937F938F939F93AF93BF93EF9315
:104B3000FF93E0913E2AF0913F2A309709F01995B2
:104B4000FF91EF91BF91AF919F918F917F916F9165
:104B50005F914F913F912F910F900BBE0F900FBE21
:104B60000F901F9018951F920F920FB60F9211245D
:104B70000BB60F922F933F934F935F936F937F9357
:104B80008F939F93AF93BF93EF93FF93E0913C2A52
:104B9000F0913D2A309709F01995FF91EF91BF915F
:104BA000AF919F918F917F916F915F914F913F91C5
:104BB0002F910F900BBE0F900FBE0F901F90189566
:104BC0001F920F920FB60F9211240BB60F922F93D4
:104BD0003F934F935F936F937F938F939F93AF9385
:104BE000BF93EF93FF93E0913A2AF0913B2A3097DD
:104BF00009F01995FF91EF91BF91AF919F918F911E
:104C00007F916F915F914F913F912F910F900BBECC
:104C10000F900FBE0F901F9018951F920F920FB616
:104C20000F9211240BB60F922F933F934F935F93E4
:104C30006F937F938F939F93AF93BF93EF93FF9364
:104C4000E091382AF091392A309709F01995FF91AF
:104C5000EF91BF91AF919F918F917F916F915F91F4
:104C60004F913F912F910F900BBE0F900FBE0F9061
:104C70001F9018951F920F920FB60F9211240BB62A
:104C80000F922F933F934F935F936F937F938F93E5
:104C90009F93AF93BF93EF93FF93E091362AF091E8
:104CA000372A309709F01995FF91EF91BF91AF9195
:104CB0009F918F917F916F915F914F913F912F9134
:104CC0000F900BBE0F900FBE0F901F9018951F9264
:104CD0000F920FB60F9211240BB60F922F933F93A2
:104CE0004F935F936F937F938F939F93AF93BF93F4
:104CF000EF93FF93E091342AF091352A309709F031
:104D00001995FF91EF91BF91AF919F918F917F91F5
:104D10006F915F914F913F912F910F900BBE0F902C
:104D20000FBE0F901F9018951F920F920FB60F9203
:104D300011240BB60F922F933F934F935F936F9372
:104D40007F938F939F93AF93BF93EF93FF93E091E4
:104D5000322AF091332A309709F01995FF91EF919B
:104D6000BF91AF919F918F917F916F915F914F9183
:104D70003F912F910F900BBE0F900FBE0F901F9081
:104D800018951F920F920FB60F9211240BB60F9227
:104D90002F933F934F935F936F937F938F939F9343
:104DA000AF93BF93EF93FF93E091302AF091312AB4
:104DB000309709F01995FF91EF91BF91AF919F91B5
:104DC0008F917F916F915F914F913F912F910F90B4
:104DD0000BBE0F900FBE0F901F9018951F920F9251
:104DE0000FB60F9211240BB60F922F933F934F9350
:104DF0005F936F937F938F939F93AF93BF93EF9343
:104E0000FF93E0912E2AF0912F2A309709F01995FF
:104E1000FF91EF91BF91AF919F918F917F916F9192
:104E20005F914F913F912F910F900BBE0F900FBE4E
:104E30000F901F9018951F920F920FB60F9211248A
:104E40000BB60F922F933F934F935F936F937F9384
:104E50008F939F93AF93BF93EF93FF93E0912C2A8F
:104E6000F0912D2A309709F01995FF91EF91BF919C
:104E7000AF919F918F917F916F915F914F913F91F2
:104E80002F910F900BBE0F900FBE0F901F90189593
:104E90001F920F920FB60F9211240BB60F922F9301
:104EA0003F934F935F936F937F938F939F93AF93B2
:104EB000BF93EF93FF93E0912A2AF0912B2A30972A
:104EC00009F01995FF91EF91BF91AF919F918F914B
:104ED0007F916F915F914F913F912F910F900BBEFA
:104EE0000F900FBE0F901F9018951F920F920FB644
:104EF0000F9211240BB60F922F933F934F935F9312
:104F00006F937F938F939F93AF93BF93EF93FF9391
:104F1000E091282AF091292A309709F01995FF91FC
:104F2000EF91BF91AF919F918F917F916F915F9121
:104F30004F913F912F910F900BBE0F900FBE0F908E
:104F40001F9018951F920F920FB60F9211240BB657
:104F50000F922F933F934F935F936F937F938F9312
:104F60009F93AF93BF93EF93FF93E091262AF09125
:104F7000272A309709F01995FF91EF91BF91AF91D2
:104F80009F918F917F916F915F914F913F912F9161
:104F90000F900BBE0F900FBE0F901F9018951F9291
:104FA0000F920FB60F9211240BB60F922F933F93CF
:104FB0004F935F936F937F938F939F93AF93BF9321
:104FC000EF93FF93E091242AF091252A309709F07E
:104FD0001995FF91EF91BF91AF919F918F917F9123
:104FE0006F915F914F913F912F910F900BBE0F905A
:104FF0000FBE0F901F9018951F920F920FB60F9231
:1050000011240BB60F922F933F934F935F936F939F
:105010007F938F939F93AF93BF93EF93FF93E09111
:10502000222AF091232A309709F01995FF91EF91E8
:10503000BF91AF919F918F917F916F915F914F91B0
:105040003F912F910F900BBE0F900FBE0F901F90AE
:1050500018951F920F920FB60F9211240BB60F9254
:105060002F933F934F935F936F937F938F939F9370
:10507000AF93BF93EF93FF93E091202AF091212A01
:10508000309709F01995FF91EF91BF91AF919F91E2
:105090008F917F916F915F914F913F912F910F90E1
:1050A0000BBE0F900FBE0F901F9018951F920F927E
:1050B0000FB60F9211240BB60F922F933F934F937D
:1050C0005F936F937F938F939F93AF93BF93EF9370
:1050D000FF93E0911E2AF0911F2A309709F019954D
:1050E000FF91EF91BF91AF919F918F917F916F91C0
:1050F0005F914F913F912F910F900BBE0F900FBE7C
:105100000F901F9018951F920F920FB60F921124B7
:105110000BB60F922F933F934F935F936F937F93B1
:105120008F939F93AF93BF93EF93FF93E0911C2ACC
:10513000F0911D2A309709F01995FF91EF91BF91D9
:10514000AF919F918F917F916F915F914F913F911F
:105150002F910F900BBE0F900FBE0F901F901895C0
:105160001F920F920FB60F9211240BB60F922F932E
:105170003F934F935F936F937F938F939F93AF93DF
:10518000BF93EF93FF93E0911A2AF0911B2A309777
:1051900009F01995FF91EF91BF91AF919F918F9178
:1051A0007F916F915F914F913F912F910F900BBE27
:1051B0000F900FBE0F901F9018951F920F920FB671
:1051C0000F9211240BB60F922F933F934F935F933F
:1051D0006F937F938F939F93AF93BF93EF93FF93BF
:1051E000E091182AF091192A309709F01995FF914A
:1051F000EF91BF91AF919F918F917F916F915F914F
:105200004F913F912F910F900BBE0F900FBE0F90BB
:105210001F9018951F920F920FB60F9211240BB684
:105220000F922F933F934F935F936F937F938F933F
:105230009F93AF93BF93EF93FF93E091162AF09162
:10524000172A309709F01995FF91EF91BF91AF910F
:105250009F918F917F916F915F914F913F912F918E
:105260000F900BBE0F900FBE0F901F9018951F92BE
:105270000F920FB60F9211240BB60F922F933F93FC
:105280004F935F936F937F938F939F93AF93BF934E
:10529000EF93FF93E091142AF091152A309709F0CB
:1052A0001995FF91EF91BF91AF919F918F917F9150
:1052B0006F915F914F913F912F910F900BBE0F9087
:1052C0000FBE0F901F9018951F920F920FB60F925E
:1052D00011240BB60F922F933F934F935F936F93CD
:1052E0007F938F939F93AF93BF93EF93FF93E0913F
:1052F000122AF091132A309709F01995FF91EF9136
:10530000BF91AF919F918F917F916F915F914F91DD
:105310003F912F910F900BBE0F900FBE0F901F90DB
:1053200018951F920F920FB60F9211240BB60F9281
:105330002F933F934F935F936F937F938F939F939D
:10534000AF93BF93EF93FF93E091102AF091112A4E
:10535000309709F01995FF91EF91BF91AF919F910F
:105360008F917F916F915F914F913F912F910F900E
:105370000BBE0F900FBE0F901F9018951F920F92AB
:105380000FB60F9211240BB60F922F933F934F93AA
:105390005F936F937F938F939F93AF93BF93EF939D
:1053A000FF93E0910E2AF0910F2A309709F019959A
:1053B000FF91EF91BF91AF919F918F917F916F91ED
:1053C0005F914F913F912F910F900BBE0F900FBEA9
:1053D0000F901F9018951F920F920FB60F921124E5
:1053E0000BB60F922F933F934F935F936F937F93DF
:1053F0008F939F93AF93BF93EF93FF93E0910C2A0A
:10540000F0910D2A309709F01995FF91EF91BF9116
:10541000AF919F918F917F916F915F914F913F914C
:105420002F910F900BBE0F900FBE0F901F901895ED
:105430001F920F920FB60F9211240BB60F922F935B
:105440003F934F935F936F937F938F939F93AF930C
:10545000BF93EF93FF93E0910A2AF0910B2A3097C4
:1054600009F01995FF91EF91BF91AF919F918F91A5
:105470007F916F915F914F913F912F910F900BBE54
:105480000F900FBE0F901F9018951F920F920FB69E
:105490000F9211240BB60F922F933F934F935F936C
:1054A0006F937F938F939F93AF93BF93EF93FF93EC
:1054B000E091082AF091092A309709F01995FF9197
:1054C000EF91BF91AF919F918F917F916F915F917C
:1054D0004F913F912F910F900BBE0F900FBE0F90E9
:1054E0001F9018951F920F920FB60F9211240BB6B2
:1054F0000F922F933F934F935F936F937F938F936D
:105500009F93AF93BF93EF93FF93E091062AF0919F
:10551000072A309709F01995FF91EF91BF91AF914C
:105520009F918F917F916F915F914F913F912F91BB
:105530000F900BBE0F900FBE0F901F9018951F92EB
:105540000F920FB60F9211240BB60F922F933F9329
:105550004F935F936F937F938F939F93AF93BF937B
:10556000EF93FF93E091042AF091052A309709F018
:105570001995FF91EF91BF91AF919F918F917F917D
:105580006F915F914F913F912F910F900BBE0F90B4
:105590000FBE0F901F9018951F920F920FB60F928B
:1055A00011240BB60F922F933F934F935F936F93FA
:1055B0007F938F939F93AF93BF93EF93FF93E0916C
:1055C000022AF091032A309709F01995FF91EF9183
:1055D000BF91AF919F918F917F916F915F914F910B
:1055E0003F912F910F900BBE0F900FBE0F901F9009
:1055F00018951F920F920FB60F9211240BB60F92AF
:105600002F933F934F935F936F937F938F939F93CA
:10561000AF93BF93EF93FF93E091002AF091012A9B
:10562000309709F01995FF91EF91BF91AF919F913C
:105630008F917F916F915F914F913F912F910F903B
:105640000BBE0F900FBE0F901F9018951F920F92D8
:105650000FB60F9211240BB60F922F933F934F93D7
:105660005F936F937F938F939F93AF93BF93EF93CA
:10567000FF93E091FE29F091FF29309709F01995E9
:10568000FF91EF91BF91AF919F918F917F916F911A
:105690005F914F913F912F910F900BBE0F900FBED6
:1056A0000F901F9018951F920F920FB60F92112412
:1056B0000BB60F922F933F934F935F936F937F930C
:1056C0008F939F93AF93BF93EF93FF93E091FC2948
:1056D000F091FD29309709F01995FF91EF91BF9155
:1056E000AF919F918F917F916F915F914F913F917A
:1056F0002F910F900BBE0F900FBE0F901F9018951B
:105700001F920F920FB60F9211240BB60F922F9388
:105710003F934F935F936F937F938F939F93AF9339
:10572000BF93EF93FF93E091FA29F091FB29309713
:1057300009F01995FF91EF91BF91AF919F918F91D2
:105740007F916F915F914F913F912F910F900BBE81
:105750000F900FBE0F901F9018951F920F920FB6CB
:105760000F9211240BB60F922F933F934F935F9399
:105770006F937F938F939F93AF93BF93EF93FF9319
:10578000E091F829F091F929309709F01995FF91E6
:10579000EF91BF91AF919F918F917F916F915F91A9
:1057A0004F913F912F910F900BBE0F900FBE0F9016
:1057B0001F901895CF93CFB7F894282F392F211524
:1057C00088E0380749F461E083E00E945F1064E0FC
:1057D00083E00E945F104FC0203488E0380749F40E
:1057E00062E083E00E945F1064E083E00E945F104B
:1057F00042C0211589E0380749F461E084E00E9445
:105800005F1064E084E00E945F1035C0203489E0BE
:10581000380749F462E084E00E945F1064E084E0AD
:105820000E945F1028C021158AE0380749F461E022
:1058300085E00E945F1064E085E00E945F101BC05D
:1058400020348AE0380749F462E085E00E945F1066
:1058500064E085E00E945F100EC021153B4049F4D2
:1058600061E086E00E945F1064E086E00E945F10C5
:1058700002C0CFBF0EC08091762B8F3F09F4FFCFBF
:105880009FB7F894E5E7FBE281818F5F81839FBF3B
:10589000CFBFCF910895811528E0920729F4609336
:1058A0003A2A70933B2A0895803428E0920729F41D
:1058B00060932E2A70932F2A0895811529E092076C
:1058C00029F46093262A7093272A0895803429E0CA
:1058D000920729F460931A2A70931B2A0895811560
:1058E0002AE0920729F46093122A7093132A0895EC
:1058F00080342AE0920729F46093062A7093072ADD
:10590000089581159B4021F46093FE297093FF292F
:105910000895CF92DF92EF92FF920F931F93CF9350
:10592000DF93EC01D901C801B695A79597958795A6
:10593000481759076A077B0778F46A017B01CC0C8A
:10594000DD1CEE1CFF1CC901B801A70196010E94D5
:105950005B402150310902C020E030E0832F8F707E
:105960008F832E83DF91CF911F910F91FF90EF9046
:10597000DF90CF900895EF92FF920F931F93CF93F4
:10598000DF93EC017B01009709F498C1803C9105FD
:1059900029F460E180E00E945F1090C1803891405E
:1059A00029F462E080E00E945F1088C1C11581E0A7
:1059B000D80729F461E080E00E945F107FC1C03801
:1059C000E3E0DE0729F461E081E00E945F1076C128
:1059D000C039F3E0DF0729F461E082E00E945F1044
:1059E0006DC1C11532E0D30729F462E081E00E9465
:1059F0005F1064C1C03482E0D80729F462E082E01D
:105A00000E945F105BC1C032E3E0DE0729F464E06E
:105A100082E00E945F1052C1C115F8E0DF0729F44F
:105A200061E083E00E945F1049C1C11539E0D307EE
:105A300029F461E084E00E945F1040C1C1158AE052
:105A4000D80729F461E085E00E945F1037C1C115D5
:105A5000EBE0DE0729F461E086E00E945F102EC1D2
:105A6000C034F8E0DF0729F462E083E00E945F10B1
:105A700025C1C03439E0D30729F462E084E00E94F4
:105A80005F101CC1C0348AE0D80729F462E085E0C9
:105A90000E945F1013C1C039E8E0DE0729F464E01A
:105AA00083E00E945F100AC1C039F9E0DF0729F4E2
:105AB00064E084E00E945F1001C1C0393AE0D3077E
:105AC00029F464E085E00E945F10F8C0C0398BE0E3
:105AD000D80729F464E086E00E945F10EFC0C03C64
:105AE000E8E0DE0729F468E083E00E945F10E6C08A
:105AF000C03CF9E0DF0729F468E084E00E945F1011
:105B0000DDC0C03A38E0D30769F460E183E00E9469
:105B10005F10E0EAF8E084818F7E8483F7012481BE
:105B200022504AC0C03AF9E0DF0729F460E184E07E
:105B30000E945F10C3C0C03A3AE0D30729F460E185
:105B400085E00E945F10BAC0C03A8BE0D80729F404
:105B500060E186E00E945F10B1C0C03BE8E0DE0774
:105B600029F460E283E00E945F10A8C0C03BF9E026
:105B7000DF0729F460E284E00E945F109FC0C03814
:105B800034E0D30729F460E483E00E945F1096C0FC
:105B9000C03A84E0D80729F460E485E00E945F10F1
:105BA0008DC08C818F7E8C83FB0124812250CE019D
:105BB000C03AF8E0DF0731F480914E0684FD86C0DC
:105BC00011E185C0803B38E0930779F0803AE9E045
:105BD0009E0731F430916E0634FD7CC019E110C08F
:105BE000803BF9E09F07A9F001C015E1803A3AE057
:105BF000930731F480918E0684FD6EC011E20CC0D3
:105C0000803A9B4049F48091AE0684FD04C019E2BD
:105C100003C01DE101C01DE2E12FE695E695E69582
:105C200030E2E39FF0011124FA5F177081E090E009
:105C3000012E02C0880F991F0A94E2F78183223057
:105C400010F040E001C040E4DF015096A10FB11D0B
:105C50003FB7F8942C9127702C939C91942B9C9394
:105C60003FBF85838D81806C8D83F70184818D7F1B
:105C7000813021F48D8182608D8303C08D818D7F81
:105C80008D83F7018581882321F08D8184608D8348
:105C900003C08D818B7F8D83F701408151816281AB
:105CA000738100E016E32EE631E0CE0132DE8C8116
:105CB00088608C838C8180618C8310C08C818F7E06
:105CC0008C83F70124812250CE017CCF15E180EA3C
:105CD00098E086CF1DE194CF15E29ECFDF91CF9162
:105CE0001F910F91FF90EF900895811122C0909124
:105CF0006C2B9923D9F09091762B911101C0FFCF95
:105D00002FB7F894E5E7FBE29181915091832FBF83
:105D10000DC09091762B9F3F09F4FFCF2FB7F894D9
:105D2000E5E7FBE291819F5F91832FBF80936C2B0E
:105D3000089590916C2B992361F3F8CF0F93E8ECC1
:105D4000F4E080818F7D808380818F7D8083E0E49B
:105D5000FBE202E005931092422B1092432B00E2EB
:105D6000069300E40693E8E3FBE200E2069300E416
:105D70000693E1E8FBE214861586168617861286DE
:105D800013861092292B0F9108950F9385E080932D
:105D9000292BE1E4FBE204E00593E9E3FBE204E004
:105DA00005930F9108950F9383E08093292B109210
:105DB000422B1092432BE0E4FBE202E006930F91AA
:105DC0000895E0918D2BF0918E2B309709F0199565
:105DD00008950F93CF93DF938091292B833019F48B
:105DE000F0DFACDF5EC08091252B9091262BC09117
:105DF0008B2BD0918C2BC81BD90B71F52091272BA5
:105E00003091282B820F931F8093272B9093282B60
:105E10002091872B3091882B8217930721F0809156
:105E2000402A882341F084E08093292BE8E3FBE2B9
:105E300002E0069336C0E0918F2BF091902B3097C3
:105E400099F01995882381F01092252B1092262B1A
:105E5000C0918B2BD0918C2BC034D10528F010929F
:105E6000402AC0E4D0E003C081E08093402AECE205
:105E7000FBE2C68BD78B8091252B9091262B20910E
:105E8000892B30918A2B280F391F208F318FC80F13
:105E9000D91FC093252BD093262BE0E4FBE202E030
:105EA0000693DF91CF910F910895FC018181E82F36
:105EB000E7708E2F90E0FC013197E730F105D8F4C0
:105EC0008827E250FF4F8F4F0C947D4080E190E097
:105ED000089580E290E0089580E490E0089580E8DD
:105EE00090E0089580E091E0089580E092E00895C8
:105EF0008FEF93E0089588E090E00895282F2F70A9
:105F000030E0220F331F082E000C990B8827990FC1
:105F1000881F9927820F931F02979C01220F331F1E
:105F2000220F331F220F331F820F931F8F53954D64
:105F300008950F93CF938091CC0480FF63C081E0DC
:105F40008093CC04E8E3FBE200E80693E0E4FBE2A4
:105F500000E806938093CA04E8E3FBE200E10693BD
:105F60008091292B882329F08350823008F429DF7F
:105F7000E5DE80913A2B90913B2B089709F044C0C5
:105F800088E0E5EEFAE2A1E8BBE201900D928A9585
:105F9000E1F7E8ECF4E080818062808380818062B8
:105FA00080830E94821EC82F811103C0EEDEC1E0F3
:105FB0002CC08091812B88236CF41092272B109297
:105FC000282B1092252B1092262B82E08093292BD0
:105FD00000DF1BC08091872B9091882B892B11F4B7
:105FE000E2DE13C01092272B1092282B1092252B43
:105FF0001092262B81E08093292BE8E3FBE202E05C
:10600000069303C0C0E001C0C1E08C2FCF910F9177
:1060100008958F929F92AF92BF92DF92EF92FF927C
:106020000F931F93CF93DF93D82E68DF8C01BD2C85
:10603000BB1CBB24BB1CCD2DCF70D0E0CC0FDD1F13
:10604000CB0DD11DCE01880F991F880F991F880F86
:10605000991F9C01285C344D7901C90126DF4C0150
:10606000BB2009F47BC0FE01EE0FFF1FEE0FFF1FE8
:10607000EE0FFF1FE45DF44D22893389D801159698
:106080008D919C911697820F931F15968D939C93DB
:10609000169713962D913C9114978217930709F444
:1060A00047C0281B390B2115B4E03B0740F02FEF08
:1060B00033E0C901B4010E944740281B390BF801A5
:1060C000808181FF0AC0C901B4010E94474041E0BC
:1060D000892B09F040E0842F01C080E0D8019C9119
:1060E00080FB91F99C93FE01EE0FFF1FEE0FFF1F47
:1060F000EE0FFF1FE45DF44D128A138A268737875F
:1061000011962D913C91129715968D919C91169711
:10611000820F931FCC0FDD1FCC0FDD1FCC0FDD1FB7
:10612000C45CD44D88839983F70102E00693E8C0EC
:10613000D8018C9181FFD1C08D7F8C93CC0FDD1F56
:10614000CC0FDD1FCC0FDD1FC45DD44D1A8A1B8A16
:106150001E861F86F70102E00693D2C0FE01EE0FF5
:10616000FF1FEE0FFF1FEE0FFF1FE45DF44DA6842F
:10617000B784D8018C9182FF1BC01196ED91FC91E0
:10618000129715962D913C91169713968D919C918F
:106190001497B4010E944740B0E4DB9EB001112483
:1061A0006F5F754DAC01CF01820F931F0E94D540E8
:1061B000F801258136812A0D3B1D25833683838195
:1061C00094818217930768F485839683CC0FDD1F33
:1061D000CC0FDD1FCC0FDD1FC45DD44D8A899B8998
:1061E0007CC0FE01EE0FFF1FEE0FFF1FEE0FFF1F23
:1061F000E45DF44D428953894A155B0509F06DC091
:106200002817390709F469C0AC01421B530B9A01E6
:10621000211554E0350758F02FEF33E0C901B401E0
:106220000E944740D901A81BB90BCD0108C0C90184
:10623000B4010E944740F901E81BF90BCF01FE01B0
:10624000EE0FFF1FEE0FFF1FEE0FFF1FE45DF44D7B
:10625000168617868815990500F5D8018C918460FB
:106260008C93B0E4DB9EC00111248F5F954DFE013D
:10627000EE0FFF1FEE0FFF1FEE0FFF1FE45CF44D4C
:1062800080839183CC0FDD1FCC0FDD1FCC0FDD1F72
:10629000C45DD44D8A8A9B8A1CC0F8014181528119
:1062A00025813681240F351FFE01EE0FFF1FEE0FF3
:1062B000FF1FEE0FFF1FE45CF44D20833183CC0FF2
:1062C000DD1FCC0FDD1FCC0FDD1FC45DD44D8A8BCD
:1062D0009B8BF70102E0069313C0D8018C9180FFDD
:1062E0000FC08E7F8C931796ED91FC911897309785
:1062F00039F015966D917C9116974D2D80E019958A
:10630000DF91CF911F910F91FF90EF90DF90BF90A1
:10631000AF909F908F900895CF93CFB7F89481E07E
:10632000E4DCEAECF4E080E4808380E28083E1EC6A
:10633000F4E0808181608083A9ECB4E08C9182607C
:106340008C93E8ECF4E08081806480838C918160A0
:106350008C93808180688083CFBFCF910895CF9345
:10636000DF93C0E6D0E0188280E30E947610E0EC74
:10637000F4E080818064808381E08883CFB7F894E3
:10638000ECE2FBE21586158A158E15A215A615AA54
:10639000E1ECFAE280818E7F8083EAECFAE2808190
:1063A0008E7F8083E3EDFAE280818E7F8083ECED47
:1063B000FAE280818E7F80836AE170E082E00E9451
:1063C000BF248F3F19F08093FA0403C08FE18093BC
:1063D000FA046BE170E082E00E94BF248F3F19F065
:1063E0008093FB0403C08FE18093FB04E0ECF4E0B6
:1063F00080818260808380818068808380818061E9
:10640000808388E39BE28683978380818062808398
:106410008FEF8093C504E8ECF4E080818160808395
:1064200010926C2B80917A2B8F3F09F4FFCF9FB78E
:10643000F894E5E7FBE285818F5F85839FBF6CDF82
:10644000CFBFDF91CF91089580E008958093C3047A
:1064500008958091C30408958091682B9091692BD1
:10646000089580E090E00895E1E8FBE2808791875D
:10647000628773870895282F2F7030E0220F331F13
:10648000082E000C990B8827990F881F9927820FD7
:10649000931FFC01EE0FFF1FEE0FFF1FEE0FFF1FFC
:1064A000E45DF44D2585207C09F069C0637061309E
:1064B00011F018F404C020EC03C020E801C020E46F
:1064C00040385105E9F050F440325105A9F040340C
:1064D0005105A1F040315105D9F40CC0411532E00D
:1064E000530791F04F3F33E0530781F0411551407E
:1064F00079F408C041E00DC042E00BC043E009C0A0
:1065000044E007C045E005C046E003C047E001C0E5
:1065100040E0FC01EE0FFF1FEE0FFF1FEE0FFF1F0D
:10652000E45DF44D158636E03487242B2587FC0185
:10653000EE0FFF1FEE0FFF1FEE0FFF1FE45DF44D88
:106540002585207C203C69F4FC01EE0FFF1FEE0F37
:10655000FF1FEE0FFF1FE45DF44D258527702730E8
:1065600081F0880F991F880F991F880F991FFC01D0
:10657000E45DF44D85858062858781E0089580E043
:10658000089581E00895E82FEF70F0E0EE0FFF1F0F
:10659000082E000C990B8827990F881F9927E80F60
:1065A000F91FEE0FFF1FEE0FFF1FEE0FFF1FE45D41
:1065B000F44D858582FB882780F908950F93282F55
:1065C0002F7030E0A901440F551F282F082E000C12
:1065D000330B2227330F221F3327240F351FA90126
:1065E000440F551F440F551F440F551FFA01E85C17
:1065F000F44D01E00693FA01E45DF44D958592FFB8
:1066000011C0FA01E45DF44D95859B7F958776DC9A
:10661000FC01808180FF06C08E7F80830780F0852B
:10662000E02D199581E00F9108957F928F929F92AE
:10663000AF92BF92CF92DF92EF92FF920F931F9390
:10664000CF93DF93982E862E6A01790157DC5C0187
:10665000792C771C7724771CC92DCF70D0E0CC0F14
:10666000DD1FC70DD11DFE01EE0FFF1FEE0FFF1F37
:10667000EE0FFF1FE45DF44D8585807C09F47EC03C
:10668000FE01EE0FFF1FEE0FFF1FEE0FFF1FE45D79
:10669000F44D8585807C803C61F0FE01EE0FFF1F8C
:1066A000EE0FFF1FEE0FFF1FE45DF44D858582FDA9
:1066B00067C08FB7F894F501908190FF03C08FBF3A
:1066C000712C5FC0F5019081916090838FBFC18272
:1066D000D282E382F48215821682078310878110AA
:1066E00006C091E0E114F10419F090E001C091E0DE
:1066F000F501808190FB81F98B7F8083772059F0B1
:10670000CC0FDD1FCC0FDD1FCC0FDD1FC45DD44DC2
:106710001A8A1B8A2EC0FE01EE0FFF1FEE0FFF1F0D
:10672000EE0FFF1FE45DF44D8585807C803CA9F46D
:10673000CE01880F991F880F991F880F991F885CB9
:10674000944DB3DBBC01C7010E944740892B29F05F
:10675000F50180818E7F808314C0CC0FDD1FCC0FAC
:10676000DD1FCC0FDD1FC45DD44D1E861F861A8A27
:106770001B8A892D4EDC7724739403C0712C01C0D1
:10678000712C872DDF91CF911F910F91FF90EF908A
:10679000DF90CF90BF90AF909F908F907F900895A3
:1067A000FF920F931F93CF93DF93182FF82EFF1CA8
:1067B000FF24FF1CC82FCF70D0E0CC0FDD1FCF0D02
:1067C000D11D9CDBDC01FE01EE0FFF1FEE0FFF1F52
:1067D000EE0FFF1FE85CF44D02E005938C9180FF03
:1067E00022C08E7F8C931796ED91FC91189730976D
:1067F000D1F0FF2059F0CC0FDD1FCC0FDD1FCC0FE7
:10680000DD1FC45DD44D6A897B890AC0CC0FDD1FB2
:10681000CC0FDD1FCC0FDD1FC45DD44D6E857F8591
:10682000412F81E01995DF91CF911F910F91FF903A
:106830000895CF93C82FB4DFEC2FEF70F0E0EE0F88
:10684000FF1F8C2FCC0F990B8827990F881F992732
:10685000E80FF91FEE0FFF1FEE0FFF1FEE0FFF1FD8
:10686000E45DF44D1586CF910895E82FEF70F0E0C8
:10687000EE0FFF1F282F082E000C330B2227330F9B
:10688000221F3327E20FF31FEE0FFF1FEE0FFF1F34
:10689000EE0FFF1FE45DF44D95859460958780DFD2
:1068A00081E008951F920F920FB60F9211240BB63C
:1068B0000F920F932F933F934F935F936F937F9319
:1068C0008F939F93AF93BF93EF93FF938091CB04EC
:1068D000882334F480E88093CA040E94521E82C048
:1068E0008091CB0482FF20C084E08093CA04809111
:1068F000402B86FF77C08091CC0481FD73C019DBEB
:10690000811170C08091292B813011F44CDA6AC05A
:10691000843009F067C0E1E4FBE204E00593E9E3B9
:10692000FBE204E005935EC08091CB0481FF55C07B
:1069300082E08093CA048091382B86FF53C08091F7
:10694000CC0481FD4FC0F5DA81114CC08091292B18
:10695000823041F484E08093292BE8E3FBE202E0FB
:10696000069340C0833009F03DC0E1E4FBE204E05F
:106970000593E9E3FBE204E0059334C080E18093F2
:10698000CA0481E00DDF81E80BDF0E942B1E10920C
:10699000C304ECE2FBE2158696E0948783E48587E6
:1069A000158A948B858B85EE9AE2808B918BC6D964
:1069B00019C08091CB0486FF06C080E48093CA048E
:1069C00080E093D90FC08091CB0485FF0BC080E29B
:1069D0008093CA0481E089D905C08091CB0484FFEB
:1069E000E8CFCCCFFF91EF91BF91AF919F918F9165
:1069F0007F916F915F914F913F912F910F910F90E8
:106A00000BBE0F900FBE0F901F9018951F920F9204
:106A10000FB60F9211240BB60F920F931F932F9363
:106A20003F934F935F936F937F938F939F93AF9316
:106A3000BF93CF93DF93EF93FF938091CC0481FDBD
:106A400003C077DA8111C2C082E08093CC048091C8
:106A5000C5048195880FE8E3FBE2E81BF10920817A
:106A6000318128533B4236952795369527953695A3
:106A70002795822F869520FD02C090E001C090E806
:106A8000890FE82FEF70F0E0EE0FFF1F282F082E80
:106A9000000C330B2227330F221F3327E20FF31F83
:106AA000DF01AA0FBB1FAA0FBB1FAA0FBB1FA45D4C
:106AB000B44D1C969C9195FF89C0EE0FFF1FEE0F01
:106AC000FF1FEE0FFF1FE85CF44D00E206938111FB
:106AD00078C08091292B843019F473D92FD976C0CE
:106AE00000913A2B10913B2B80918B2B90918C2B0A
:106AF000C091252BD091262B9E01200F311F82178C
:106B0000930718F48C010C1B1D0B8091892B90911D
:106B10008A2BA80165EE7AE28C0F9D1F0E94D5405A
:106B2000C00FD11FC093252BD093262B0034110505
:106B300069F48091272B9091282B8C0F9D1F209119
:106B4000872B3091882B8217930780F0E1E8FBE2D6
:106B5000C287D3870684F785E02D309729F01995F1
:106B6000811102C012D932C01ED930C080918B2B46
:106B700090918C2BC817D907F9F4E0918F2BF091E5
:106B8000902B309711F401D921C01995811102C0C1
:106B9000FCD81CC02091272B3091282B8091252BCD
:106BA0009091262B820F931F8093272B9093282B55
:106BB0001092252B1092262BE8E3FBE202E00693CD
:106BC00005C0803811F405D901C023DAFF91EF9197
:106BD000DF91CF91BF91AF919F918F917F916F91F5
:106BE0005F914F913F912F911F910F910F900BBE8D
:106BF0000F900FBE0F901F901895CF92DF92EF92DB
:106C0000FF920F931F93CF93DF93CDB7DEB76097BB
:106C1000CDBFDEBF80E1E2E7F1E2DE011196019037
:106C20000D928A95E1F702E91BE20F2EFEE9CF2EC5
:106C3000FBE2DF2EF02D6894EE24E3F8F12CB7018F
:106C400081E00E94BF24F8013197982F92959F70A0
:106C5000A1E0B0E0AC0FBD1FA90FB11D9C919083C6
:106C60008F70E1E0F0E0EC0FFD1FE80FF11D808177
:106C7000F8018083FFEFEF1AFF0A0E5F1F4F0C151C
:106C80001D05E9F60E94281E6096CDBFDEBFDF918C
:106C9000CF911F910F91FF90EF90DF90CF900895CB
:106CA00080936E2B0895CF93DF9380916E2B882372
:106CB00091F010926E2BEAECF4E08491882359F065
:106CC000EF01082E000C990B0E943D1D2196FE013C
:106CD00084918111F6CF0E94741C882301F10E94D7
:106CE000C41C90916D2B913049F48B3521F492E0C6
:106CF00090936D2B17C010926D2B0AC0923041F407
:106D000010926D2B813469F0823411F488E20AC04C
:106D10008B3141F481E080936D2B80E003C080E0F3
:106D200001C086E2DF91CF9108952F923F924F925A
:106D30005F926F927F928F929F92AF92BF92CF920B
:106D4000DF92EF92FF920F931F93CF93DF93CDB714
:106D5000DEB7C257D109CDBFDEBF9E01275A3F4FD4
:106D6000AB962EAF3FAFAB97AA963FADAA97AE9624
:106D70003FAFAE97AB968FADAB97AF968FAFAF9758
:106D80001E0197E6290E311CE0962FAEE097E196A2
:106D90003FAEE197DE01AF59BF4FAD96AEAFBFAF8B
:106DA000AD97B22CAC96BFADAC97E296BFAFE29771
:106DB000AD968FACAD97A32E982EE3963FAEE3979A
:106DC00080EF90E20E948D15CE0101968AD28A81D1
:106DD0008230D1F7698180EF90E20E94A5158F3F44
:106DE00099F3813009F4E6C038F0823009F4E2C149
:106DF000833009F45DC25EC28CE0E3E8F1E2DE01BB
:106E0000139601900D928A95E1F7FE013F9684E179
:106E1000DF011D928A95E9F700E020E240E860E09A
:106E200080E00E94F2130E94D9242B013C011BD761
:106E3000F82E1CD7E82E9E01295B3F4FAE014F5A1A
:106E40005F4F60E170E2CE0103960E949D19629649
:106E50008FAD629720E830E0281B3109C9019923E2
:106E60000CF40196BC017595679520E130E240E095
:106E7000CE0103960E9445198E010D5D1F4F2E2DE8
:106E80004F2DC301B2010E949D0D44244A94542CFD
:106E9000320100521109CE01C59623D28DA9883046
:106EA00021F48EA9823009F48BCF0E94D924641575
:106EB00075058605970579F36B017C01CE018396F4
:106EC0000E94970F89A58F9388A58F938FA190E03B
:106ED00001969F938F938EA190E001969F938F933D
:106EE000EAA5F0E0EE0FFF1FEE51FF4D81818F9379
:106EF00080818F93ABEBB1E2BF93AF931F92F0E22F
:106F0000FF931F930F930E94DE409E01295B3F4F2A
:106F1000AE014F5A5F4F60E170E2C8010E949D19B7
:106F200062968FAD629720E830E0281B3109B901E5
:106F300012F46F5F7F4F7595679520E130E24CE06A
:106F4000C8010E9445198BA11F928F938CA11F929B
:106F50008F938DA11F928F93ABECB1E2BF93AF9350
:106F60001F92F0E2FF931F930F930E94DE409E0159
:106F7000295B3F4FAE014F5A5F4F60E170E2C8019D
:106F80000E949D1962968FAD629720E830E0281B21
:106F90003109B90112F46F5F7F4F7595679520E154
:106FA00030E244E1C8010E944519CDBFDEBF260191
:106FB000370171CFC12C0F2EF9E3EF2EF8E0FF2E31
:106FC000F02D0BED17E020E030E041EA55E061E004
:106FD000CE01C5960E94D4160F2EFCE0EF2EF12CA8
:106FE000F02D01E010E020E030E04BE955E061E0F9
:106FF000CE0183960E94D4160F2EFFE1EF2EF12CC6
:10700000F02D20E030E047E955E061E0CE01039645
:107010000E94D416CE01895B9F4F0E94F316BE01D9
:10702000695B7F4FCE01C5960E94FA16BE01695B6F
:107030007F4FCE0183960E94FA16BE01695B7F4F97
:10704000CE0103960E94FA160ED6F82E0FD6E82E21
:107050000E94D924AE960FADAE97AF961FADAF97F5
:107060002E2D4F2D0E949D0D6D968FAD6D9790E04A
:1070700001968E839F836E96EFAD6E97F0E031960A
:10708000EEA3FFA3A0968EAD9FADA09788AF99AF5A
:10709000CE01895B9F4F0E942D17E3961FADE397AA
:1070A000E2960FADE2978B2D912F1BD1D101119656
:1070B0002C9111972230B9F7402F582D6C91CE01A9
:1070C000895B9F4F0E9401188D3F69F7A3968EAD93
:1070D0009FADA39768968EAF9FAF6897A4968FAD2C
:1070E000A497815066968FAF6697A6968FADA697A8
:1070F000815065968FAF659764961FAE64976396CF
:107100001FAE639762961FAE62974E2D6F2DCE0114
:107110008F5A9F4F0E94820E672B682B692BE9F4D0
:1071200000E020E240E860E080E00E94F21320E10D
:1071300030E24CE06AE08EE795E00E946E19E0963E
:107140001FADE097E1960FADE197812F902FC9D049
:10715000F10121812230C9F733CE0E94D924AE96A5
:107160000FADAE97AF961FADAF972E2D4F2D0E944E
:107170009D0D68968EAD9FAD6897A0968EAF9FAF20
:10718000A09766968FAD66976E968FAF6E97659651
:107190008FAD65976D968FAF6D974E2D6F2DAE9617
:1071A0008FADAE97AF969FADAF970E94820E0E94B3
:1071B000C92406CEC12C0F2EF7E1EF2EF12CF02DB5
:1071C00000E010E020E030E042E955E061E0CE016F
:1071D00083960E94D4160F2EFBE3EF2EF12CF02D98
:1071E00020E030E04BE855E061E0CE0103960E94DC
:1071F000D416CE01C5960E94F316BE016B5C7F4F7C
:10720000CE0183960E94FA16BE016B5C7F4FCE01C1
:1072100003960E94FA1627D5F82E28D5E82E0E944C
:10722000D9248E01095B1F4F2E2D4F2D0E949D0DDD
:107230002A968FAD2A9790E08EA39FA32996EFAD53
:107240002997F0E0EE83FF83CE01C5960E942D17AB
:107250008A2D992D46D06B962FAD6B972230C1F7B2
:10726000AE014F5A5F4F6A966FAD6A97CE01C596D1
:107270000E9401188D3F61F762968FAD62972A9642
:107280008FAF2A9764968FAD649729968FAF299711
:107290004E2D6F2DCE01895B9F4F0E94820E61158E
:1072A00071058105910509F48BCD0E94C92488CD13
:1072B000E0D486CDCE58DF4FCDBFDEBFDF91CF917A
:1072C0001F910F91FF90EF90DF90CF90BF90AF9004
:1072D0009F908F907F906F905F904F903F902F90F6
:1072E0000895CF93DF932091880625FD0DC020914E
:1072F0006F2B20FD87C0216020936F2B2DE0FC01B8
:10730000208321E021838DC02091880625FF0DC0B8
:1073100020916F2B20FF09C02E7F20936F2B2DE033
:10732000FC01208322E021837CC02091A80621FD5E
:107330000DC020916F2B21FD6AC0226020936F2B1E
:1073400026E2FC01208321E021836BC02091A80666
:1073500021FF0DC020916F2B21FF09C02D7F2093AD
:107360006F2B26E2FC01208322E021835AC020916A
:10737000A80622FD0DC020916F2B22FD4DC0246078
:1073800020936F2B28E2FC01208321E0218349C058
:107390002091A80622FF0DC020916F2B22FF09C06B
:1073A0002B7F20936F2B28E2FC01208322E0218396
:1073B00038C0EC0137D4882361F080916F2B83FDB6
:1073C00008C0886080936F2B88E0888381E0898380
:1073D00028C028D481110CC080916F2B83FF08C076
:1073E000877F80936F2B88E0888382E0898319C030
:1073F0005ADC882321F0888382E0898312C01882B6
:1074000019820FC03091880635FD86CF8ECF30911E
:10741000A80631FDA3CFABCF3091A80632FDC0CF77
:10742000C8CFDF91CF9108954F925F926F927F9274
:107430009F92AF92BF92CF92DF92EF92FF920F9303
:107440001F93CF93DF93CDB7DEB72C97CDBFDEBFB1
:1074500000E020E240E860E080E00E94F21348E1B2
:1074600061E083ED90E20E94A71448E16EE18DEDAA
:1074700090E20E94A71448E16CE388ED90E20E943C
:10748000A71448E166E78EEC90E20E94A71420E181
:1074900030E240E060E086EF91E20E94451920E191
:1074A00030E248E060E082E092E20E944519412C1F
:1074B000512C3201E12C6894FF24F1F80F2EFDE0ED
:1074C000AF2EF2E2BF2EF02D0F2EFAE09F2EF02D00
:1074D0006E0183E0C80ED11C10E89FB7F894F70145
:1074E0008081846080839FBF0E94E3098823E1F349
:1074F0000E94730A092E000CAA0BBB0B480E591EE2
:107500006A1E7B1E083C10F40F5F37C0C301B20136
:1075100028EC30E040E050E0CED529013A017F92DE
:107520006F925F922F93BF92AF921F929F92DF92C2
:10753000CF9244D620E130E248E066E4C6010E94E2
:107540004519689413F87694679457944794169461
:10755000D1F701E027E0442D61E180E00E94F213C1
:10756000412F441900E027E061E1842D0E94F213CD
:10757000CDBFDEBF412C512C3201CE010196B1DED0
:107580008981883009F0A9CF8A81823009F0A5CF9E
:107590002C96CDBFDEBFDF91CF911F910F91FF9051
:1075A000EF90DF90CF90BF90AF909F907F906F90C3
:1075B0005F904F9008950F93CF93DF931F921F9288
:1075C000CDB7DEB700E020E240E860E080E00E9456
:1075D000F2130FEF21E044E06AE08AE00E940C140D
:1075E00021E044E066E18AE00E940C1421E044E0DE
:1075F0006AE085E70E940C1421E044E066E185E73B
:107600000E940C1420E130E248E06AE582E192E257
:107610000E94451920E130E244E160E585E192E213
:107620000E94451920E130E248E064E18AE192E2FB
:107630000E94451920E130E244E164E180E292E2F7
:107640000E944519CE0101964CDE8A818230D1F725
:107650000F900F90DF91CF910F910895CF93DF930B
:107660001F921F92CDB7DEB70E94EB0F0E9412212E
:1076700087E08093A2000E9438127BD20E94EF091B
:1076800080E18093850664E080E00E945F10E0E284
:10769000F4E0818180FDFDCF80E00E94EA24882310
:1076A00049F00E940E251CD16F5F7F4F8F4F9F4F77
:1076B0000E94C9240E94D92460387E468E419D4490
:1076C00030F460E87EE68EE19DE40E94C92495DAFC
:1076D000789471DF21D30F2EF0E8EF2EF6E0FF2E25
:1076E000F02D10E18FEF90E20E948D15CE010196F2
:1076F000F8DD8A818230D1F769818FEF90E20E94B4
:10770000A5158F3F99F3823079F028F4882341F052
:10771000813041F010C0833049F0843049F00BC013
:107720000CD0E0CF81DEDECF23D1DCCFFEDADACFA2
:10773000F7011783D7CF3FDFD5CF7F928F929F92EC
:10774000AF92BF92CF92DF92EF92FF920F931F936F
:10775000CF93DF93CDB7DEB76A97CDBFDEBF9FB7BC
:10776000F894E0E0F2E08081886080839FBF1D8212
:1077700086E08B8380E28C8380E191E28E839F831D
:1077800001E020E240E860E080E00E94CE1300E0EB
:107790002EE14EE761E081E00E94F21320E130E249
:1077A00042E06BE18DE296E00E946E19812C6894B4
:1077B000992491F80F2EF5E2AF2EF2E2BF2EF02DB4
:1077C0000F2EFFE07F2EF02D7E0188E0E80EF11CE9
:1077D0000F2EF1E3CF2EF2E2DF2EF02D40E06AE033
:1077E000CE0103960E94A7140E94D7098823E1F3D3
:1077F0000E94430A182F9FB7F894F4018081886093
:1078000080839FBF612F012E000C770B880B990B93
:107810004FD36F8B788F898F9A8F2CEE31E548EBA1
:107820005EEBD2D320E030E042EA51E4AAD212D398
:10783000262F00E042E063E08CE00E94F213812FEB
:10784000012E000C990B9F931F93BF92AF921F9232
:107850007F92FF92EF92B2D420E130E24DE066E1F8
:10786000C7010E94451926E636E646EE5FE36F89BA
:10787000788D898D9A8DA8D320E030E040E052E4E5
:1078800080D2E3D27F936F93DF92CF921F927F9249
:10789000FF92EF9293D420E130E245E166E1C70127
:1078A0000E944519CE0101961CDDCDBFDEBF898146
:1078B000883009F093CF8A81823009F08FCF6A96A1
:1078C000CDBFDEBFDF91CF911F910F91FF90EF9061
:1078D000DF90CF90BF90AF909F908F907F90089552
:1078E000CF92DF92EF92FF92CF9360E170E081E060
:1078F0000E94BF24C82F61E170E081E00E94BF2494
:10790000C82ED12CE12CF12C7601DD24CC24FC2ACC
:1079100062E170E081E00E94BF24C82F63E170E063
:1079200081E00E94BF24A7019601282BDA01C9013A
:10793000BC01CD017C2B6B017C0130E8C31A3EE613
:10794000D30A3EE1E30A3DE4F30A4FE7C41641E9F6
:10795000D40641EEE40642EBF40620F060E87EE651
:107960008EE19DE4CF91FF90EF90DF90CF9008954E
:107970003F924F925F926F927F928F929F92AF92BF
:10798000BF92CF92DF92EF92FF920F931F93CF930C
:10799000DF93CDB7DEB7E297CDBFDEBF00E020E2D8
:1079A00040E860E080E00E94F21320E130E240E035
:1079B00060E080E492E20E94451992DFAE014D5EE4
:1079C0005F4F0E94CC0C44244A94542C32010F2E59
:1079D000F6E13F2EF02D8E01035E1F4F6894882440
:1079E00087F8912C02C026013701CE01019679DC7F
:1079F0008981883021F48A81823009F493C00E9401
:107A0000D9246B017C01641575058605970559F32A
:107A1000AE014D5F5F4F0E94CC0CAE01455F5F4FE2
:107A2000BE016D5E7F4FCE0103960E94DF0E2F8553
:107A300088899989AC01440F551F840F951F880FC1
:107A4000991F880F991F820F911D9F938F93A6E511
:107A5000B2E2BF93AF931F923F921F930F93AED3A7
:107A60009E01245E3F4FAE01455E5F4F60E170E2D4
:107A7000C8010E949D198B8DD401A81BB1095D011D
:107A8000CDBFDEBF1AF43FEFA31AB30AB594A79493
:107A900020E130E248E06A2DC8010E9445198E8538
:107AA0001F928F93A1E6B2E2BF93AF931F923F92D2
:107AB0001F930F9383D320E130E240E16A2DC80188
:107AC0000E9445198B851F928F938C851F928F93EF
:107AD0008D851F928F93ABECB1E2BF93AF931F9252
:107AE0003F921F930F936AD39E01245E3F4FAE01D6
:107AF000455E5F4F60E170E2C8010E949D198B8D69
:107B0000D401A81BB109BD0112F46F5F7F4F7595B9
:107B1000679520E130E248E1C8010E944519CDBFD8
:107B2000DEBF61CFE296CDBFDEBFDF91CF911F9167
:107B30000F91FF90EF90DF90CF90BF90AF909F900C
:107B40008F907F906F905F904F903F90089581E06D
:107B50008093722B2091702B3091712B8091282172
:107B600090912921820F931F8093702B9093712BFA
:107B70000895CF93DF93ECEAF2E280E480831182F0
:107B800012821382E0EBF2E280E88083118212829B
:107B9000138223E04AE060E080E00E94100560E08C
:107BA00070E08DE294E00E942106EEE6F2E284E0CD
:107BB000818384E1848395E095831382828381E0CD
:107BC000808383E0868380E099E00E94DA2BC0E026
:107BD000D9E08881807F826088838F818C7F8F83CA
:107BE0008F8181608F83409128215091292128EE37
:107BF00033E0429FC001439F900D529F900D11248E
:107C00008EA39FA367EA7DE380E099E00E944B2C5E
:107C10008981806189831092882210928922DF9164
:107C2000CF9108958091722B882351F01092722B7E
:107C30008091702B9091712B0E94800590FDF8CF60
:107C400080918522809581700895823031F0833053
:107C500031F0813031F48FE008958EE108958DE2A6
:107C6000089580E008958091742B08958091732B7E
:107C700008951F93CF93DF931F921F92CDB7DEB766
:107C800089E391E20E948D15CE0101962ADB8A815B
:107C90008230D1F7698189E391E20E94A515182FFE
:107CA00082E0810F823080F384EF810F8093742B08
:107CB00084E090E00E946624181729F0612F84E088
:107CC00090E00E949A248AE291E20E948D15CE01F2
:107CD000019607DB8A818230D1F769818AE291E2DD
:107CE0000E94A515182F82E0810F823080F3812F2A
:107CF000ACDF8093732B85E090E00E946624181718
:107D000029F0612F85E090E00E949A240F900F9057
:107D1000DF91CF911F910895CF9384E090E00E946E
:107D2000662494EF980F9093742B893150F48093CC
:107D30003E2185E090E00E946624C82F8430C8F080
:107D40000CC01092742B8CE080933E2185E090E073
:107D50000E946624C82F843030F01092732B10924A
:107D60002F2187DF0BC071DF8093732BC0932F21EE
:107D7000F8CF6BDF8093732BC0932F21CF910895A1
:107D80005058BB27AA270ED0E5C0D6D030F0DBD0A4
:107D900020F031F49F3F11F41EF4CBC00EF4E095B7
:107DA000E7FBC1C0E92FE7D080F3BA17620773077A
:107DB0008407950718F071F49EF5FFC00EF4E09566
:107DC0000B2EBA2FA02D0B01B90190010C01CA0195
:107DD000A0011124FF27591B99F0593F50F4503E40
:107DE00068F11A16F040A22F232F342F4427585F32
:107DF000F3CF469537952795A795F0405395C9F74A
:107E00007EF41F16BA0B620B730B840BBAF0915001
:107E1000A1F0FF0FBB1F661F771F881FC2F70EC0A0
:107E2000BA0F621F731F841F48F487957795679573
:107E3000B795F7959E3F08F0B3CF9395880F08F05C
:107E40009927EE0F97958795089504D06894B111FE
:107E5000B5C0089598D088F09F5790F0B92F992712
:107E6000B751A0F0D1F0660F771F881F991F1AF045
:107E7000BA95C9F712C0B13081F09FD0B1E0089532
:107E80009CC0672F782F8827B85F39F0B93FCCF3B3
:107E9000869577956795B395D9F73EF4909580953B
:107EA000709561957F4F8F4F9F4F0895E89409C05B
:107EB00097FB3EF490958095709561957F4F8F4F1D
:107EC0009F4F9923A9F0F92F96E9BB279395F69533
:107ED000879577956795B795F111F8CFFAF4BB0FB1
:107EE00011F460FF1BC06F5F7F4F8F4F9F4F16C015
:107EF000882311F096E911C0772321F09EE8872F9F
:107F0000762F05C0662371F096E8862F70E060E05A
:107F10002AF09A95660F771F881FDAF7880F9695D3
:107F2000879597F9089597F99F6780E870E060E07A
:107F300008959FEF80EC089500240A941616170602
:107F400018060906089500240A941216130614064A
:107F500005060895092E0394000C11F4882352F0AD
:107F6000BB0F40F4BF2B11F460FF04C06F5F7F4F65
:107F70008F4F9F4F089557FD9058440F551F59F04C
:107F80005F3F71F04795880F97FB991F61F09F3F06
:107F900079F087950895121613061406551FF2CF2F
:107FA0004695F1DF08C0161617061806991FF1CF7F
:107FB00086957105610508940895E894BB276627A6
:107FC0007727CB0197F908950BD0C4CFB5DF28F000
:107FD000BADF18F0952309F0A6CFABCF1124EECF6E
:107FE000CADFA0F3959FD1F3950F50E0551F629F14
:107FF000F001729FBB27F00DB11D639FAA27F00D02
:10800000B11DAA1F649F6627B00DA11D661F829F28
:108010002227B00DA11D621F739FB00DA11D621F0D
:10802000839FA00D611D221F749F3327A00D611D2A
:10803000231F849F600D211D822F762F6A2F11240C
:108040009F5750408AF0E1F088234AF0EE0FFF1F5F
:10805000BB1F661F771F881F91505040A9F79E3F96
:10806000510570F060CFAACF5F3FECF3983EDCF390
:10807000869577956795B795F795E7959F5FC1F7D3
:10808000FE2B880F911D9695879597F90895AA1B49
:10809000BB1B51E107C0AA1FBB1FA617B70710F0F3
:1080A000A61BB70B881F991F5A95A9F78095909525
:1080B000BC01CD010895A1E21A2EAA1BBB1BFD0134
:1080C0000DC0AA1FBB1FEE1FFF1FA217B307E407B7
:1080D000F50720F0A21BB30BE40BF50B661F771F0F
:1080E000881F991F1A9469F76095709580959095EF
:1080F0009B01AC01BD01CF010895EE0FFF1F881F4A
:108100008BBF0790F691E02D1994A29FB001B39F09
:10811000C001A39F700D811D1124911DB29F700D90
:10812000811D1124911D0895F0DFB7FF0895821B72
:10813000930B0895EADFA59F900DB49F900DA49F27
:10814000800D911D112408952F923F924F925F92BE
:108150006F927F928F929F92AF92BF92CF92DF9257
:10816000EF92FF920F931F93CF93DF93CDB7DEB7BC
:10817000CA1BDB0BCDBFDEBF19942A88398848881B
:108180005F846E847D848C849B84AA84B984C88433
:10819000DF80EE80FD800C811B81AA81B981CE0F2A
:1081A000D11DCDBFDEBFED010895FB01DC0102C092
:1081B00001900D9241505040D8F708950F931F93AE
:1081C000CF93DF93CDB7DEB72E97CDBFDEBF0E893D
:1081D0001F89888D998D26E02C8309831A8397FF48
:1081E00002C080E090E801978D839E83AE01445EDB
:1081F0005F4F6A8D7B8DCE01019616D04D815E81D9
:1082000057FD0AC02F813885421753070CF49A0195
:10821000F801E20FF31F10822E96CDBFDEBFDF9173
:10822000CF911F910F9108952F923F924F925F929D
:108230006F927F928F929F92AF92BF92CF92DF9276
:10824000EF92FF920F931F93CF93DF93CDB7DEB7DB
:108250002C97CDBFDEBF7C016B018A01FC01168229
:108260001782838181FFB0C1CE0101964C01F701D5
:108270009381F60193FD859193FF81916F0188238E
:1082800009F49EC1853239F493FD859193FF819164
:108290006F01853221F4B70190E0C4D1E8CF512CB1
:1082A000312C20E02032A0F48B3269F030F480329F
:1082B00059F0833269F420612CC08D3239F080335B
:1082C00039F4216026C02260246023C0286021C0C8
:1082D00027FD27C030ED380F3A3078F426FF06C06E
:1082E000FAE05F9E300D1124532E13C08AE0389EB1
:1082F000300D1124332E20620CC08E3221F426FD65
:108300005FC1206406C08C3611F4206802C0883634
:1083100041F4F60193FD859193FF81916F018111E5
:10832000C1CF982F9F7D9554933028F40C5F1F4F39
:10833000FFE3F9830DC0833631F0833771F0833565
:1083400009F057C021C0F801808189830E5F1F4F5B
:1083500044244394512C540114C03801F2E06F0EB0
:10836000711CF801A080B18026FF03C0652D70E06C
:1083700002C06FEF7FEFC5012C8749D12C0183012B
:108380002C852F77222E16C03801F2E06F0E711C5B
:10839000F801A080B18026FF03C0652D70E002C007
:1083A0006FEF7FEFC5012C8727D12C012C8520682A
:1083B000222E830123FC19C0832D90E04816590614
:1083C000A0F4B70180E290E02DD13A94F5CFF50109
:1083D00027FC859127FE81915F01B70190E022D1B2
:1083E00031103A94F1E04F1A51084114510479F7D1
:1083F000DEC0843611F0893631F5F80127FF07C059
:1084000060817181828193810C5F1F4F08C0608100
:108410007181072E000C880B990B0E5F1F4F2F7672
:10842000722E97FF09C090958095709561957F4F4A
:108430008F4F9F4F2068722E2AE030E0A4012AD18E
:10844000A82EA81843C0853729F42F7EB22E2AE023
:1084500030E025C0F22FF97FBF2E8F36C1F018F41F
:10846000883579F0ADC0803719F0883721F0A8C081
:108470002F2F2061B22EB4FE0DC08B2D8460B82E3C
:1084800009C024FF0AC09F2F9660B92E06C028E0BD
:1084900030E005C020E130E002C020E132E0F80128
:1084A000B7FE07C060817181828193810C5F1F4F8D
:1084B00006C06081718180E090E00E5F1F4FA401D3
:1084C000E9D0A82EA818FB2DFF777F2E76FE0BC0D3
:1084D000372D3E7FA51450F474FE0AC072FC08C00C
:1084E000372D3E7E05C0BA2C372D03C0BA2C01C0F3
:1084F000B52C34FF0DC0FE01EA0DF11D80818033E3
:1085000011F4397E09C032FF06C0B394B39404C09D
:10851000832F867809F0B39433FD12C030FF06C074
:108520005A2CB31418F4530C5B18B32CB31460F426
:10853000B70180E290E03C8775D0B3943C85F6CFDC
:10854000B31410F43B1801C0312C34FF11C0B70133
:1085500080E390E03C8766D03C8532FF16C031FD59
:1085600003C088E790E002C088E590E0B7010CC046
:10857000832F867851F031FF02C08BE201C080E288
:1085800037FD8DE2B70190E04DD0A51430F4B7016E
:1085900080E390E047D05A94F8CFAA94F401EA0D12
:1085A000F11D8081B70190E03DD0A110F6CF3320BE
:1085B00009F45DCEB70180E290E034D03A94F7CF71
:1085C000F7018681978102C08FEF9FEF2C96CDBF78
:1085D000DEBFDF91CF911F910F91FF90EF90DF9061
:1085E000CF90BF90AF909F908F907F906F905F9053
:1085F0004F903F902F900895FC010590615070407E
:108600000110D8F7809590958E0F9F1F0895FC015B
:108610006150704001900110D8F7809590958E0FB1
:108620009F1F08950F931F93CF93DF93FB01238127
:1086300021FD03C08FEF9FEF28C022FF16C04681A7
:108640005781248135814217530744F4A081B181B9
:108650009D012F5F3F4F208331838C93268137818B
:108660002F5F3F4F2683378310C0EB01092F182F50
:108670000084F185E02D1995892BE1F68E819F818B
:1086800001968E839F83812F902FDF91CF911F9131
:108690000F910895FA01AA27283051F1203181F174
:1086A000E8946F936E7F6E5F7F4F8F4F9F4FAF4FFA
:1086B000B1E03ED0B4E03CD0670F781F891F9A1F0D
:1086C000A11D680F791F8A1F911DA11D6A0F711DC1
:1086D000811D911DA11D20D009F468943F912AE0CD
:1086E000269F11243019305D3193DEF6CF010895B5
:1086F000462F4770405D4193B3E00FD0C9F7F6CFE6
:10870000462F4F70405D4A3318F0495D31FD4052AD
:10871000419302D0A9F7EACFB4E0A6959795879543
:1087200077956795BA95C9F7009761057105089522
:108730009B01AC010A2E06945795479537952795CE
:10874000BA95C9F7620F731F841F951FA01D089566
:04875000F894FFCFCB
:10875400010408010A020408010E020408011202BD
:108764000016020607207D151C911A9B1A9D1A6299
:108774001B601A8B1A651B9D1A00007E2031200095
:10878400003A20352021201720000902430002016D
:1087940000C0320904000001020201000524001097
:1087A4000104240202052406000105240103010733
:1087B40005820340001009040100020A00000007BA
:1087C400058102400000070502024000000012017A
:1087D400000202000040EB03222100010102030118
:1087E4000003000000000000000000000000000082
:1087F4000000000000000000000000000000000075
:10880400434443205669727475616C20436F6D0054
:1088140041544D454C2041534600040309040A08C1
:1088240001A804050801B204090801B7040A0801F3
:10883400C004DA21DE21E221E621EA21EE21F2213F
:10884400D405F720040000C505BC05B305A605231F
:1088540006062105000017060B06FB05EF05DE05DD
:1088640001F9FDFDF90141FFFFFFFF4110FFFFFF8B
:10887400FF109EBFBFBFBF9E1900580631210400E0
:10888400005106490641063906C6074021190C0065
:10889400B407A20796078A077D076F076207550783
:1088A4004C073D072A071F071107FF06F106E406D8
:1088B400D806CA06BA06AC069D0692068806740651
:1088C4006A0630313233343536373839414243441D
:1088D4004546004461746520262054696D65000096
:1088E4000000000000000000000000000000000084
:1088F4000000001F1C1F1E1F1E1F1F1E1F1E1F1FE8
:108904001D1F1E1F1E1F1F1E1F1E1F257320252E09
:1089140032642E252E32642E256400252E32643ACC
:10892400252E32643A252E32640053756E004D6F45
:108934006E0054756500576564005468750046728E
:108944006900536174004C6967687473656E736F72
:1089540072005261772076616C75653A0025346C3B
:108964006400557000446F776E00456E7465720044
:108974004261636B002533692043656C73697573C9
:10898400002533692046616872656E686569740004
:1089940054696D652073696E63652070726F6475C8
:1089A4006374696F6E00253264204D6F6E74687352
:0A89B400002532642044617973004D
:00000001FF
